{
  "transactions": [
    {
      "hash": "0x769a2d5e397267e105d0189568e334c4bfab99214a9fe37fccc90a82306f205c",
      "transactionType": "CREATE",
      "contractName": "CohortLedger",
      "contractAddress": "0x5fbdb2315678afecb367f032d93f642f64180aa3",
      "function": null,
      "arguments": [
        "0xf39Fd6e51aad88F6F4ce6aB8827279cffFb92266",
        "1000000000000000000"
      ],
      "transaction": {
        "from": "0xf39fd6e51aad88f6f4ce6ab8827279cfffb92266",
        "gas": "0xfb346",
        "value": "0x0",
        "input": "0x6080346100d157601f610d5f38819003918201601f19168301916001600160401b038311848410176100d65780849260409485528339810103126100d15780516001600160a01b03811691908290036100d157602001519080156100bf57600080546001600160a01b0319168217815560405191907f8be0079c531659141344cd1fd0a4f28419497f9722a3daafe3b4186f6b6457e08180a381156100b15750600255604051610c7290816100ed8239f35b62bfc92160e01b8152600490fd5b60405163d92e233d60e01b8152600490fd5b600080fd5b634e487b7160e01b600052604160045260246000fdfe608060408181526004918236101561001657600080fd5b600092833560e01c91826305b569c014610ab4575081631849e59714610a82578163236e4ced14610a635781632ada25961461098e5781632f2ff15d146108ed5781635695d272146108bb57816376e925591461089d57816383f2fc3e146108625781638418cd99146106b15781638bce0743146106775781638da5cb5b1461064f57816391d148541461060857816398d9115f1461051b578163ac0250f7146104e2578163aca6b44d146102a2578163b2ada42a14610271578163d547741f146101c6578163f2fde38b14610133575063f68e9553146100f657600080fd5b3461012f578160031936011261012f57602090517fedcc084d3dcd65a1f7f23c65c46722faca6953d28e43150a467cf43e5c3092388152f35b5080fd5b9050346101c25760203660031901126101c25761014e610b4f565b8354916001600160a01b0380841692338490036101b257169384156101a557505082907f8be0079c531659141344cd1fd0a4f28419497f9722a3daafe3b4186f6b6457e08580a36001600160a01b03191617815580f35b5163d92e233d60e01b8152fd5b85516330cd747160e01b81528390fd5b8280fd5b919050346101c257806003193601126101c2578135906101e4610b65565b845490936001600160a01b0391821633036102635750828552600160205281852093169283855260205260ff818520541661021d578380f35b8184526001602052808420838552602052832060ff1981541690557f155aaafb6329a2098580462df33ec4b7441b19729b9601c5fc17ae1cf99a8a528380a33880808380f35b82516330cd747160e01b8152fd5b50503461012f57602036600319011261012f5760209061ffff61029a610295610b39565b610c21565b915191168152f35b83833461012f578060031936011261012f576102bc610b4f565b9060249384359261ffff90818516928386036104de577fedcc084d3dcd65a1f7f23c65c46722faca6953d28e43150a467cf43e5c3092389182885260209260018452868920338a52845260ff878a205416156104c157506001600160a01b039081169687156104b1578789526003845284878a20541661049b5761076c86108015610490575b61047a5761034f90610c21565b6002888a61035b610b7b565b93898552888886019116988982528b86016001815260608701918483528d608089019580875260a08a0197818952815260038d522097511665ff000000000064ff0000000063ffff00008a54965160101b16935115158d1b169351151560281b169365ffffffffffff191617171717845551600184015551910155815468010000000000000000811015610468578060016103f892018455610bd4565b819291549060031b9189831b921b1916179055828752600682528487208054916001830180931161045657507fcea9d13b3614a13580f851ed5be73bd63aceb3de260a66bf2e61396bafb4521396979850558351928352820152a280f35b634e487b7160e01b8952601190528888fd5b634e487b7160e01b8952604183528989fd5b86516362ab53d760e01b81528084018790528a90fd5b506108348611610342565b86516345ed80e960e01b81528084018990528a90fd5b865163d92e233d60e01b81528390fd5b86516301d4003760e61b81528084019190915233818b0152604490fd5b8680fd5b828434610518576020366003190112610518575061050260209235610bd4565b905491519160018060a01b039160031b1c168152f35b80fd5b9050346101c25760203660031901126101c257610536610b4f565b7ff70ccd5004a2a6f964f044c0095454c529799f8602238d52b5a197af351dd419808552600160205283852033865260205260ff8486205416156105ec57506001600160a01b031680845260036020528284208054919390929061ffff8316156105d657505065ff00000000001916650100000000001790557fa59e3b52cc428f9ef295563b34bd6af71489d571edf9d7f38ba0e977d0abc6cf8280a280f35b5163bfc6c33760e01b8152908101849052602490fd5b905060449251916301d4003760e61b8352820152336024820152fd5b9050346101c257816003193601126101c2578160209360ff92610629610b65565b90358252600186528282206001600160a01b039091168252855220549151911615158152f35b50503461012f578160031936011261012f57905490516001600160a01b039091168152602090f35b50503461012f578160031936011261012f57602090517e94841a895749e476be6e1ec6e56111257b893af810565ba728415296663b558152f35b919050346101c257806003193601126101c2576106cc610b4f565b926024908135907e94841a895749e476be6e1ec6e56111257b893af810565ba728415296663b559586825260209660018852858320338452885260ff86842054161561084557506001600160a01b03168082526003875284822080549096919461ffff9290838316156108305760ff838b1c161561081b57851561080c57670de0b6b3a7640000860290670de0b6b3a763ffff19878304016107fb576002549283156107ea5750509287949192600286947f0196d0533f37ea47d88e4eb66396286ef3e57c7ebd89f644475d77f1e899cace9896049a600181016107b1888254610bb1565b9055016107bf8b8254610bb1565b905560101c16815260058952206107d7828254610bb1565b905581519081528587820152a251908152f35b634e487b7160e01b87526012905285fd5b634e487b7160e01b86526011835285fd5b508651631f2a200560e01b8152fd5b875163f747606360e01b815291820187905290fd5b875163bfc6c33760e01b815291820187905290fd5b85516301d4003760e61b8152808801919091523381860152604490fd5b50503461012f578160031936011261012f57602090517ff70ccd5004a2a6f964f044c0095454c529799f8602238d52b5a197af351dd4198152f35b9050346101c257826003193601126101c25760209250549051908152f35b50503461012f57602036600319011261012f578060209261ffff6108dd610b39565b1681526006845220549051908152f35b919050346101c257806003193601126101c25781359061090b610b65565b845490936001600160a01b0391821633036102635750828552600160205281852093169283855260205260ff818520541615610945578380f35b81845260016020528084208385526020528320600160ff198254161790557f2ae6a113c0ed5b78a53413ffbb7679881f11145ccfba4fb92e863dfcd5a1d2f38380a33880808380f35b50503461012f57602090816003193601126101c2578060c0936109af610b4f565b8160a06109ba610b7b565b82815282888201528286820152826060820152826080820152015260018060a01b0316815260038452206109ec610b7b565b9181549061ffff8083169586865280860191808560101c1683528387019260ff86841c161515845260ff606089019660281c161515865260a0600260018901549860808b01998a520154980197885284519889525116908701525115159085015251151560608401525160808301525160a0820152f35b50503461012f578160031936011261012f576020906002549051908152f35b50503461012f57602036600319011261012f578060209261ffff610aa4610b39565b1681526005845220549051908152f35b92915034610b35576020366003190112610b35578354813593906001600160a01b03163303610b2957508215610b1c57507f82d3d77b84247a7267fe239bd9c6fb44ad88ecb90aedfec13877ea2349251281906002548151908152836020820152a160025580f35b905162bfc92160e01b8152fd5b6330cd747160e01b8152fd5b8380fd5b6004359061ffff82168203610b4a57565b600080fd5b600435906001600160a01b0382168203610b4a57565b602435906001600160a01b0382168203610b4a57565b6040519060c0820182811067ffffffffffffffff821117610b9b57604052565b634e487b7160e01b600052604160045260246000fd5b91908201809211610bbe57565b634e487b7160e01b600052601160045260246000fd5b600454811015610c0b5760046000527f8a35acfbc15ff81a39ae7d344fd709f28e8600b4aa8c65c6b64bfe7fe36bd19b0190600090565b634e487b7160e01b600052603260045260246000fd5b600561ffff918216819004821602908116908103610bbe579056fea2646970667358221220f5702ff7976ad277915758c58aac8101d58d6d95e1d8bc3df0feb97362b73d0364736f6c63430008180033000000000000000000000000f39fd6e51aad88f6f4ce6ab8827279cfffb922660000000000000000000000000000000000000000000000000de0b6b3a7640000",
        "nonce": "0x0",
        "chainId": "0x7a69"
      },
      "additionalContracts": [],
      "isFixedGasLimit": false
    },
    {
      "hash": "0xd5133a294ee9b99510f9d26f38e5a0eabd213b82cb5f8f83422342f79a90ccab",
      "transactionType": "CREATE",
      "contractName": "FairnessGate",
      "contractAddress": "0xe7f1725e7734ce288f8367e1bb143e90bb3f0512",
      "function": null,
      "arguments": [
        "0xf39Fd6e51aad88F6F4ce6aB8827279cffFb92266"
      ],
      "transaction": {
        "from": "0xf39fd6e51aad88f6f4ce6ab8827279cfffb92266",
        "gas": "0x1b2959",
        "value": "0x0",
        "input": "0x6080346100b057601f61181e38819003918201601f19168301916001600160401b038311848410176100b5578084926020946040528339810103126100b057516001600160a01b038116908190036100b057801561009e57600080546001600160a01b0319168217815560405191907f8be0079c531659141344cd1fd0a4f28419497f9722a3daafe3b4186f6b6457e08180a361175290816100cc8239f35b60405163d92e233d60e01b8152600490fd5b600080fd5b634e487b7160e01b600052604160045260246000fdfe608080604052600436101561001357600080fd5b60003560e01c9081632071887c14611521575080632496469e146114e657806328c1e2b8146112235780632f2ff15d1461117c5780638da5cb5b146111535780638f61f4f51461111857806391d14854146110cb57806397e4df17146107b8578063c7f758a8146101fe578063d547741f1461015b578063da35c6641461013d5763f2fde38b146100a357600080fd5b34610138576020366003190112610138576004356001600160a01b0381811691829003610138576000549081168033036101265782156101145782907f8be0079c531659141344cd1fd0a4f28419497f9722a3daafe3b4186f6b6457e0600080a36001600160a01b03191617600055005b60405163d92e233d60e01b8152600490fd5b6040516330cd747160e01b8152600490fd5b600080fd5b34610138576000366003190112610138576020600454604051908152f35b3461013857604036600319011261013857600435610177611587565b6000549091906001600160a01b0390811633036101265781600052600160205260406000209216918260005260205260ff604060002054166101b557005b806000526001602052604060002082600052602052604060002060ff1981541690557f155aaafb6329a2098580462df33ec4b7441b19729b9601c5fc17ae1cf99a8a52600080a3005b3461013857602036600319011261013857600060c060405161021f81611648565b6060815260606020820152606060408201528260608201528260808201528260a082015201526102506004356115d3565b506040519061025e82611648565b604051815481600061026f8361160e565b80835292600181169081156107995750600114610755575b61029392500382611664565b82526040518081602060018501549283815201600185016000526020600020926000905b80600f83011061066d5761034d945491818110610658575b818110610640575b818110610629575b818110610611575b8181106105f9575b8181106105e1575b8181106105c9575b8181106105b1575b818110610599575b818110610581575b818110610569575b818110610551575b818110610539575b818110610521575b818110610509575b106104fb575b500382611664565b60208301526002810160405190816020825491828152019160005260206000209060005b8181106104e5578660ff6004888861038b818a0382611664565b604085015260038101546060850152015460018060a01b038116608084015267ffffffffffffffff8160a01c1660a084015260e01c16151560c082015260405160208152815160e060208301528051908161010084015260005b8281106104ce575050610120906000828285010152601f801991011682019081016020610140818601519361010086820301604087015284518094520192019060005b8181106104b457505050604083015190601f198382030160608401526020808351928381520192019060005b81811061049e5750505060c083606084950151608085015260018060a01b0360808201511660a085015267ffffffffffffffff60a082015116828501520151151560e08301520390f35b8251845260209384019390920191600101610454565b825161ffff16845260209384019390920191600101610428565b8060208092840101516101208287010152016103e5565b8254845260209093019260019283019201610371565b60f01c815260200186610345565b92602060019161ffff8560e01c16815201930161033f565b92602060019161ffff8560d01c168152019301610337565b92602060019161ffff8560c01c16815201930161032f565b92602060019161ffff8560b01c168152019301610327565b92602060019161ffff8560a01c16815201930161031f565b92602060019161ffff8560901c168152019301610317565b92602060019161ffff8560801c16815201930161030f565b92602060019161ffff8560701c168152019301610307565b92602060019161ffff8560601c1681520193016102ff565b92602060019161ffff8560501c1681520193016102f7565b92602060019161ffff8560401c1681520193016102ef565b92602060019161ffff8560301c1681520193016102e7565b92602060019161ffff85831c1681520193016102df565b92602060019161ffff8560101c1681520193016102d7565b92602060019161ffff851681520193016102cf565b916010919350610200600191865461ffff8116825261ffff81861c16602083015261ffff8160201c16604083015261ffff8160301c16606083015261ffff8160401c16608083015261ffff8160501c1660a083015261ffff8160601c1660c083015261ffff8160701c1660e083015261ffff8160801c1661010083015261ffff8160901c1661012083015261ffff8160a01c1661014083015261ffff8160b01c1661016083015261ffff8160c01c1661018083015261ffff8160d01c166101a083015261ffff8160e01c166101c083015260f01c6101e08201520194019201849293916102b7565b5090836000526020600020906000915b81831061077d57505090602061029392820101610287565b6020919350806001915483858801015201910190918392610765565b6020925061029394915060ff191682840152151560051b820101610287565b346101385760803660031901126101385767ffffffffffffffff60043511610138573660236004350112156101385767ffffffffffffffff600435600401351161013857366024600435600401356004350101116101385760243567ffffffffffffffff811161013857610830903690600401611556565b9060443567ffffffffffffffff811161013857610851903690600401611556565b3360009081527fab0abe0ac784c8cb7ff2dde6fca8a20d1ab21f792e5ef34b43f146db4890393c6020526040902054919290917fb09aa5aeb3702cfd50b6b62bc4532604938f21248a27a1d5ca736082b6819cc19060ff16156110ad575081840361109857831561108657670de0b6b3a76400006064351161106c5760045492600160401b841015610cad57600184016004556108ed846115d3565b50506108f8846115d3565b5092610904845461160e565b601f811161102a575b506000601f6004356004013511600114610fa45760009060043560040135610f94575b506004356004013560011b906000196004356004013560031b1c19161784555b6004840180546001600160e01b0319163367ffffffffffffffff60a01b1916174260a01b67ffffffffffffffff60a01b16179055606435600385015560005b868110610ecd57506040519360208552600435600401356020860152600435600401356024600435016040870137600060406004356004013587010152601f1994867fdc252f306703b21a06942a9125a974da8820ba330c08939ece178742bbc439a733926040818a601f6004356004013501168101030190a3600090600090610a1889611686565b96610a266040519889611664565b898852610a328a611686565b01366020890137600089815b818310610e2b57610a4f92506116dc565b8015610e23575b908893929160009860005b8c8110610d2f57505050600401805460ff60e01b19166064358981101560e01b60ff60e01b1691909117909155604080519189111582526020820189905261ffff93841690820152911660608201527fe45510d13ca49e02028e45a07142e1aff6b7db3fff3cf0470c444d86b03761a690608090a26064358411610cfd5760005b868110610cc35750505067ffffffffffffffff8411610cad57600160401b8411610cad5760035484600355808510610c34575b509260036000528060041c60005b818110610bd95750600f1982169091039081610b78575b505060409250817fd24c2047577899547bacebb29e319fc7d73f6712b5adb401d45556f34bb2aa3b600080a25b825191825260643510156020820152f35b60009485925b808710610ba3575050604094506000805160206116fd83398151915201558380610b3a565b90926020610bce600192610bb6876115c4565b908a851b60031b9161ffff809116831b921b19161790565b940196019590610b7e565b6000805b60108110610c0057506000805160206116fd833981519152820155600101610b23565b96906020610c2b600192610c13856115c4565b908b851b60031b9161ffff809116831b921b19161790565b92019701610bdd565b610c6c90600f860160041c600f6000805160206116fd83398151915292601e8960011b1680610c72575b500160041c8201910161159d565b84610b15565b7fc2575a0e9e593c00f959f8c92f12db2869c3395a3b0502d05e2516446f71f85a8401908154906000199060200360031b1c16905589610c5e565b634e487b7160e01b600052604160045260246000fd5b80610cd160019284866115b4565b3561ffff610ce8610ce3848c8a6115b4565b6115c4565b16600052600260205260406000205501610ae2565b50505060409250817fd92fba445edb3153b571e6df782d7a66fd0ce668519273670820ee3a86da0ef4600080a2610b67565b90919293949550600181018111610dff57600181015b8c8110610d5c5750600101908a9594939291610a61565b610d7b610d6983856116b7565b51610d7483866116b7565b519061169e565b60008112610e15575b80670de0b6b3a7640000810204670de0b6b3a76400001481151715610dff5784670de0b6b3a7640000610db792026116dc565b8b8111610dc8575b50600101610d45565b9a509095509350610dda858c8a6115b4565b610de3906115c4565b94610def858d8b6115b4565b610df8906115c4565b948d610dbf565b634e487b7160e01b600052601160045260246000fd5b610e1e906116cb565b610d84565b506001610a56565b908290610e40610ce361ffff9384938d6115b4565b166000526002602052604060002054908115610ea55750610e6c81610e66858a8c6115b4565b3561169e565b610e76848c6116b7565b5260008112610e97575b8082018211610dff57600191019101908a90610a3e565b610ea0906116cb565b610e80565b60249150610eb7610ce3858f8d6115b4565b604051636c63309360e11b815291166004820152fd5b610edb610ce38289876115b4565b6001860154600160401b811015610cad5760018101806001890155811015610f7e57610f359060018801600052601e61ffff60206000208360041c0194169160011b1683549060031b9161ffff809116831b921b19161790565b9055610f428183856115b4565b3590600286015491600160401b831015610cad5760018301806002890155831015610f7e5760019260028801600052602060002001550161098f565b634e487b7160e01b600052603260045260246000fd5b6024915060043501013587610930565b8460005260206000209060005b600480350135601f1916811061100d5750600480350135601f19811610610fe8575b5050600160043560040135811b018455610950565b602460001960f86004356004013560031b161c19916004350101351690558680610fd3565b909160206001819260248660043501013581550193019101610fb1565b600085815260209081902061105c92600480350135601f810160051c83019311611062575b601f0160051c019061159d565b8661090d565b909150819061104f565b60405163762745c760e01b81526064356004820152602490fd5b604051632d8f4d1560e11b8152600490fd5b6040516001621398b960e31b03198152600490fd5b604490604051906301d4003760e61b82526004820152336024820152fd5b34610138576040366003190112610138576110e4611587565b600435600052600160205260406000209060018060a01b0316600052602052602060ff604060002054166040519015158152f35b346101385760003660031901126101385760206040517fb09aa5aeb3702cfd50b6b62bc4532604938f21248a27a1d5ca736082b6819cc18152f35b34610138576000366003190112610138576000546040516001600160a01b039091168152602090f35b3461013857604036600319011261013857600435611198611587565b6000549091906001600160a01b0390811633036101265781600052600160205260406000209216918260005260205260ff60406000205416156111d757005b8060005260016020526040600020826000526020526040600020600160ff198254161790557f2ae6a113c0ed5b78a53413ffbb7679881f11145ccfba4fb92e863dfcd5a1d2f3600080a3005b346101385760403660031901126101385767ffffffffffffffff60043581811161013857611255903690600401611556565b909160249060243590811161013857611272903690600401611556565b90937f73da78343b6ce330897c6b382bce766962bda4698c6113a170c34403c27818a19081600052600193602092858452604060002033600052845260ff60406000205416156110ad575083860361109857851561108657846000815b61149f575b5050600380546000825580611466575b506000959493955b87811061139557505050604051948060408701604088525260608601919060005b81811061136a57505050848103848601528181528301949260005b828110611357577f5dde9c42c3a745a28224405474fef698bf00afc9d3d19803c10475f5f55c30a486880387a1005b8435875295810195938101938301611328565b9091928396949596359061ffff8216809203610138579081529395949386019286019190850161130d565b6113a481868b999798996115b4565b3561ffff90816113b8610ce3858d8a6115b4565b16600052600287526040600020556113d4610ce3838b886115b4565b90835490600160401b8210156114515789820180865582101561143c5789939291601e61143092876000528260041c6000805160206116fd83398151915201941691861b1683549060031b9161ffff809116831b921b19161790565b905501959493956112ec565b85634e487b7160e01b60005260326004526000fd5b85634e487b7160e01b60005260416004526000fd5b8160005286600f6000805160206116fd833981519152920160041c8201915b8281106114935750506112e4565b60008155018790611485565b6003548110156114e1578061ffff839260041c6000805160206116fd833981519152015460f08360041b161c16600052600286526000604081205501816112cf565b6112d4565b346101385760003660031901126101385760206040517f73da78343b6ce330897c6b382bce766962bda4698c6113a170c34403c27818a18152f35b34610138576020366003190112610138576004359061ffff821680920361013857602091600052600282526040600020548152f35b9181601f840112156101385782359167ffffffffffffffff8311610138576020808501948460051b01011161013857565b602435906001600160a01b038216820361013857565b8181106115a8575050565b6000815560010161159d565b9190811015610f7e5760051b0190565b3561ffff811681036101385790565b600454811015610f7e576005906004600052027f8a35acfbc15ff81a39ae7d344fd709f28e8600b4aa8c65c6b64bfe7fe36bd19b0190600090565b90600182811c9216801561163e575b602083101461162857565b634e487b7160e01b600052602260045260246000fd5b91607f169161161d565b60e0810190811067ffffffffffffffff821117610cad57604052565b90601f8019910116810190811067ffffffffffffffff821117610cad57604052565b67ffffffffffffffff8111610cad5760051b60200190565b81810392916000138015828513169184121617610dff57565b8051821015610f7e5760209160051b010190565b600160ff1b8114610dff5760000390565b81156116e6570490565b634e487b7160e01b600052601260045260246000fdfec2575a0e9e593c00f959f8c92f12db2869c3395a3b0502d05e2516446f71f85ba264697066735822122066b9ed09758564d4869959f8c2058acbeaff631dfdd8a355ac44ff1ce3234bbd64736f6c63430008180033000000000000000000000000f39fd6e51aad88f6f4ce6ab8827279cfffb92266",
        "nonce": "0x1",
        "chainId": "0x7a69"
      },
      "additionalContracts": [],
      "isFixedGasLimit": false
    },
    {
      "hash": "0xaac497e4112b7f396b283e115f8c5719697c90b2bd53668d57927a873b08e293",
      "transactionType": "CREATE",
      "contractName": "MortalityOracle",
      "contractAddress": "0x9fe46736679d2d9a65f0992f2272de9f3c7fa6e0",
      "function": null,
      "arguments": [
        "0xf39Fd6e51aad88F6F4ce6aB8827279cffFb92266"
      ],
      "transaction": {
        "from": "0xf39fd6e51aad88f6f4ce6ab8827279cfffb92266",
        "gas": "0x8a19b",
        "value": "0x0",
        "input": "0x6080346100b057601f61073638819003918201601f19168301916001600160401b038311848410176100b5578084926020946040528339810103126100b057516001600160a01b038116908190036100b057801561009e57600080546001600160a01b0319168217815560405191907f8be0079c531659141344cd1fd0a4f28419497f9722a3daafe3b4186f6b6457e08180a361066a90816100cc8239f35b60405163d92e233d60e01b8152600490fd5b600080fd5b634e487b7160e01b600052604160045260246000fdfe608060408181526004918236101561001657600080fd5b600092833560e01c91826307e2cea5146105c9575081632f2ff15d14610528578163316d2a001461046b5781636fc2923d146104335781638da5cb5b1461040b57816391d14854146103c4578163a156b83114610266578163b6be690214610223578163d547741f14610178578163f2fde38b146100e5575063fac82a4c1461009e57600080fd5b346100e15760203660031901126100e15760209167ffffffffffffffff9082906001600160a01b036100ce61061e565b1681526002855220541615159051908152f35b5080fd5b9050346101745760203660031901126101745761010061061e565b8354916001600160a01b038084169233849003610164571693841561015757505082907f8be0079c531659141344cd1fd0a4f28419497f9722a3daafe3b4186f6b6457e08580a36001600160a01b03191617815580f35b5163d92e233d60e01b8152fd5b85516330cd747160e01b81528390fd5b8280fd5b91905034610174578060031936011261017457813590610196610603565b845490936001600160a01b0391821633036102155750828552600160205281852093169283855260205260ff81852054166101cf578380f35b8184526001602052808420838552602052832060ff1981541690557f155aaafb6329a2098580462df33ec4b7441b19729b9601c5fc17ae1cf99a8a528380a33880808380f35b82516330cd747160e01b8152fd5b5050346100e15760203660031901126100e15760209167ffffffffffffffff9082906001600160a01b0361025561061e565b168152600285522054169051908152f35b839150346100e15760603660031901126100e15761028261061e565b926024359367ffffffffffffffff808616958681036103c057604435917f68e79a7bf1e0bc45d0a330c573bc367f9cf464fd326078812f301165fbda4ef19182885260209260018452868920338a52845260ff878a205416156103a457506001600160a01b03909416958615610396578688526002835281868920541661037f5750877f13fa9622699f9a6ef338a40f44e499a6cd10d36b3b9089ada91ea579eb12dec596979815908115610375575b5061036b575b868852600282528488209316928367ffffffffffffffff198254161790556003815281848820558351928352820152a280f35b4281169350610338565b9050421089610332565b855163ea22d84d60e01b8152908101879052602490fd5b855163d92e233d60e01b8152fd5b876044918851916301d4003760e61b8352820152336024820152fd5b8580fd5b9050346101745781600319360112610174578160209360ff926103e5610603565b90358252600186528282206001600160a01b039091168252855220549151911615158152f35b5050346100e157816003193601126100e157905490516001600160a01b039091168152602090f35b5050346100e15760203660031901126100e15760209181906001600160a01b0361045b61061e565b1681526003845220549051908152f35b919050346101745760203660031901126101745761048761061e565b83546001600160a01b03919082163303610519571691828452600260205267ffffffffffffffff82852054161561050457508290828252600260205280822067ffffffffffffffff19815416905560036020528120557f4aa0a597093905d76b4cd51107ff48bba78891da9a1156d0924d228b070a33308280a280f35b826024925191635678f0e760e11b8352820152fd5b5050516330cd747160e01b8152fd5b91905034610174578060031936011261017457813590610546610603565b845490936001600160a01b0391821633036102155750828552600160205281852093169283855260205260ff818520541615610580578380f35b81845260016020528084208385526020528320600160ff198254161790557f2ae6a113c0ed5b78a53413ffbb7679881f11145ccfba4fb92e863dfcd5a1d2f38380a33880808380f35b8490346100e157816003193601126100e157807f68e79a7bf1e0bc45d0a330c573bc367f9cf464fd326078812f301165fbda4ef160209252f35b602435906001600160a01b038216820361061957565b600080fd5b600435906001600160a01b03821682036106195756fea26469706673582212201e9afeca91d012389725aa21783c6d425eebacbb91be8a2a17396f7df328243264736f6c63430008180033000000000000000000000000f39fd6e51aad88f6f4ce6ab8827279cfffb92266",
        "nonce": "0x2",
        "chainId": "0x7a69"
      },
      "additionalContracts": [],
      "isFixedGasLimit": false
    },
    {
      "hash": "0x9bd29ad63e0c5c3bf3c0acd84a31aa3815d33b49a623d993c4dd1cefb1e9fb22",
      "transactionType": "CREATE",
      "contractName": "LongevaPool",
      "contractAddress": "0xcf7ed3acca5a467e9e704c703e8d87f634fb0fc9",
      "function": null,
      "arguments": [
        "0xf39Fd6e51aad88F6F4ce6aB8827279cffFb92266",
        "0x9fE46736679d2D9a65F0992F2272dE9f3c7fa6e0"
      ],
      "transaction": {
        "from": "0xf39fd6e51aad88f6f4ce6ab8827279cfffb92266",
        "gas": "0xe6d1a",
        "value": "0x0",
        "input": "0x60a0346100eb57601f610cb538819003918201601f19168301916001600160401b038311848410176100f05780849260409485528339810103126100eb5780516001600160a01b0391828216918290036100eb57602001519182168083036100eb5781156100d957600080546001600160a01b0319168317815560405192907f8be0079c531659141344cd1fd0a4f28419497f9722a3daafe3b4186f6b6457e08180a3156100ca5750608052604051610bae908161010782396080518181816105730152610a390152f35b63d92e233d60e01b8152600490fd5b60405163d92e233d60e01b8152600490fd5b600080fd5b634e487b7160e01b600052604160045260246000fdfe60806040818152600480361015610059575b509050361561001f57600080fd5b60207feb2d114a827fe0da3db4c0e374010959cf461f7ed76987aeff51666dea9add9b9161004f34600254610afe565b60025551348152a1005b600092833560e01c90816301e1d11414610a685750806309246aed14610a245780632c9e09e4146109e95780632f2ff15d14610949578063353efdcf1461090e5780633a98ef39146108ef5780634179a8f6146108b457806347e7ef241461075d578063645d9828146106a857806372b4ee64146106815780637304053d1461052b5780637bf08621146103a95780638da5cb5b1461038157806391d148541461033b578063d547741f14610291578063e8d991d1146101ee578063f2fde38b146101605763f5eb42dc03610011573461015c57602036600319011261015c5760209282916001600160a01b0361014e610a9f565b168252845220549051908152f35b8280fd5b503461015c57602036600319011261015c5761017a610a9f565b8354916001600160a01b0380841692338490036101de57169384156101d157505082907f8be0079c531659141344cd1fd0a4f28419497f9722a3daafe3b4186f6b6457e08580a36001600160a01b03191617815580f35b5163d92e233d60e01b8152fd5b85516330cd747160e01b81528390fd5b5082903461028d578160031936011261028d577f75c54964a01877e6799d0bf9bb81bacccabdf428c61a51fb4b1945e5db894095808352600160205283832033845260205260ff84842054161561027157602083857feb2d114a827fe0da3db4c0e374010959cf461f7ed76987aeff51666dea9add9b838251848152a151908152f35b83516301d4003760e61b81529182015233602482015260449150fd5b5080fd5b50903461015c578060031936011261015c578135906102ae610a84565b845490936001600160a01b03918216330361032d5750828552600160205281852093169283855260205260ff81852054166102e7578380f35b8184526001602052808420838552602052832060ff1981541690557f155aaafb6329a2098580462df33ec4b7441b19729b9601c5fc17ae1cf99a8a528380a33880808380f35b82516330cd747160e01b8152fd5b503461015c578160031936011261015c578160209360ff9261035b610a84565b90358252600186528282206001600160a01b039091168252855220549151911615158152f35b50503461028d578160031936011261028d57905490516001600160a01b039091168152602090f35b50903461015c578060031936011261015c576103c3610a9f565b90602435907f5612063648f807201ec1c6d4f999a34ed02c6a8b521b7b99e155a6823c5687369283865260209360018552828720338852855260ff83882054161561050f575082156104ff576002548084116104e2578361042391610b6b565b6002556001600160a01b0316938580808086895af13d156104dd573d67ffffffffffffffff81116104ca57835190610464601f8201601f1916880183610b33565b815287863d92013e5b1561049e5750519081527f85614384dd52aa71c3b02d6986abe55274cb38b9b13fc323db17de1b950c27279190a280f35b83606492519162461bcd60e51b835282015260086024820152671c185e4819985a5b60c21b6044820152fd5b634e487b7160e01b885260418352602488fd5b61046d565b93505060449450519263b97fded160e01b84528301526024820152fd5b8151631f2a200560e01b81528590fd5b856044918451916301d4003760e61b8352820152336024820152fd5b50903461015c576020928360031936011261067e57839061054a610a9f565b8351633eb20a9360e21b81526001600160a01b03918216868201819052939091829060249082907f0000000000000000000000000000000000000000000000000000000000000000165afa90811561067457829161063e575b50156106285781815283855282812054908115610611578184916105e77f7c8a3ce451f4ffe475fff2d483bc93e665b6e96d84b5e00751c1d83a227dbabc94610b0b565b968582528852828120556105fd81600354610b6b565b60035581519081528587820152a251908152f35b8351634cd4c80360e01b8152808601849052602490fd5b509051634617d59560e11b815291820152602490fd5b90508581813d831161066d575b6106558183610b33565b8101031261028d5751801515810361028d57386105a3565b503d61064b565b84513d84823e3d90fd5b80fd5b50913461067e57602036600319011261067e57506106a160209235610b0b565b9051908152f35b508260031936011261015c577f75c54964a01877e6799d0bf9bb81bacccabdf428c61a51fb4b1945e5db894095808452600160205282842033855260205260ff83852054161561074357503415610735575060207feb2d114a827fe0da3db4c0e374010959cf461f7ed76987aeff51666dea9add9b9161072a34600254610afe565b60025551348152a180f35b9051631f2a200560e01b8152fd5b60449251916301d4003760e61b8352820152336024820152fd5b50908060031936011261015c57610772610a9f565b602435907f2561bf26f818282a3be40719542054d2173eb0d38539e8a8d3cff22f29fd2384808652600160205283862033875260205260ff848720541615610898575081156108895781340361086c57907f73a19dd210f1a7f902193214c0ee91dd35ee5b4d920cba8d519eca65a7b488ca929160035480158015610862575b15610846575081905b60018060a01b031694858752602052828620610818828254610afe565b905561082681600354610afe565b60035561083582600254610afe565b60025582519182526020820152a280f35b61085361085c9184610ab5565b60025490610ade565b906107fb565b50600254156107f2565b5060449291519163cf47918160e01b835234908301526024820152fd5b505051631f2a200560e01b8152fd5b846044918551916301d4003760e61b8352820152336024820152fd5b50503461028d578160031936011261028d57602090517f5612063648f807201ec1c6d4f999a34ed02c6a8b521b7b99e155a6823c5687368152f35b50503461028d578160031936011261028d576020906003549051908152f35b50503461028d578160031936011261028d57602090517f2561bf26f818282a3be40719542054d2173eb0d38539e8a8d3cff22f29fd23848152f35b50903461015c578060031936011261015c57813590610966610a84565b845490936001600160a01b03918216330361032d5750828552600160205281852093169283855260205260ff8185205416156109a0578380f35b81845260016020528084208385526020528320600160ff198254161790557f2ae6a113c0ed5b78a53413ffbb7679881f11145ccfba4fb92e863dfcd5a1d2f38380a33880808380f35b50503461028d578160031936011261028d57602090517f75c54964a01877e6799d0bf9bb81bacccabdf428c61a51fb4b1945e5db8940958152f35b50503461028d578160031936011261028d57517f00000000000000000000000000000000000000000000000000000000000000006001600160a01b03168152602090f35b84903461028d578160031936011261028d576020906002548152f35b602435906001600160a01b0382168203610a9a57565b600080fd5b600435906001600160a01b0382168203610a9a57565b81810292918115918404141715610ac857565b634e487b7160e01b600052601160045260246000fd5b8115610ae8570490565b634e487b7160e01b600052601260045260246000fd5b91908201809211610ac857565b6003548015610b2c57610b24610b299260025490610ab5565b610ade565b90565b5050600090565b90601f8019910116810190811067ffffffffffffffff821117610b5557604052565b634e487b7160e01b600052604160045260246000fd5b91908203918211610ac85756fea2646970667358221220b68d972dffc164937f20f9bfdf7d0fee198b977204413b82a88aac9f91a31a4b64736f6c63430008180033000000000000000000000000f39fd6e51aad88f6f4ce6ab8827279cfffb922660000000000000000000000009fe46736679d2d9a65f0992f2272de9f3c7fa6e0",
        "nonce": "0x3",
        "chainId": "0x7a69"
      },
      "additionalContracts": [],
      "isFixedGasLimit": false
    },
    {
      "hash": "0xdb11a8160a62611e2d9837e5dd28c736bcc2041067704cc809da01ead064b745",
      "transactionType": "CREATE",
      "contractName": "BenefitStreamer",
      "contractAddress": "0xdc64a140aa3e981100a9beca4e685f962f0cf6c9",
      "function": null,
      "arguments": [
        "0xf39Fd6e51aad88F6F4ce6aB8827279cffFb92266",
        "0x9fE46736679d2D9a65F0992F2272dE9f3c7fa6e0"
      ],
      "transaction": {
        "from": "0xf39fd6e51aad88f6f4ce6ab8827279cfffb92266",
        "gas": "0x1163ad",
        "value": "0x0",
        "input": "0x60a0346100f257601f610f7038819003918201601f19168301916001600160401b038311848410176100f75780849260409485528339810103126100f25780516001600160a01b0391828216918290036100f257602001519182168083036100f25781156100e057600080546001600160a01b0319168317815560405192907f8be0079c531659141344cd1fd0a4f28419497f9722a3daafe3b4186f6b6457e08180a3156100d15750608052604051610e62908161010e823960805181818161071301528181610af80152610ca30152f35b63d92e233d60e01b8152600490fd5b60405163d92e233d60e01b8152600490fd5b600080fd5b634e487b7160e01b600052604160045260246000fdfe60806040818152600480361015610029575b505050361561001f57600080fd5b610027610deb565b005b600092833560e01c90816309246aed14610ae4575080632f2ff15d14610a4457806334aedecd14610a09578063402914f5146109dc5780634e71d92d146106b157806383699275146106375780638da5cb5b1461060f57806391d14854146105c957806393766f27146105aa5780639f536444146103cf578063b60d42881461035c578063cf7966441461027b578063d547741f146101d1578063e6a69ab8146101b2578063e713c376146101735763f2fde38b03610011573461016f57602036600319011261016f576100fb610b42565b8354916001600160a01b03808416923384900361015f571693841561015257505082907f8be0079c531659141344cd1fd0a4f28419497f9722a3daafe3b4186f6b6457e08580a36001600160a01b03191617815580f35b5163d92e233d60e01b8152fd5b85516330cd747160e01b81528390fd5b8280fd5b5050346101ae57816003193601126101ae57602090517f11443b23617db34b01244d11705d34607a299c5a51f7a0bcb6a86e98bf8e1da98152f35b5080fd5b5050346101ae57816003193601126101ae57602090516301e133808152f35b50903461016f578060031936011261016f578135906101ee610b27565b845490936001600160a01b03918216330361026d5750828552600160205281852093169283855260205260ff8185205416610227578380f35b8184526001602052808420838552602052832060ff1981541690557f155aaafb6329a2098580462df33ec4b7441b19729b9601c5fc17ae1cf99a8a528380a33880808380f35b82516330cd747160e01b8152fd5b503461016f57602036600319011261016f57610295610b42565b7f11443b23617db34b01244d11705d34607a299c5a51f7a0bcb6a86e98bf8e1da9808552600160205283852033865260205260ff84862054161561034057506001600160a01b031680845260026020819052838520018054919390929060ff83161561032a57505060ff191690557fc8df9387463bad688e6bee33a5517e1226baa5a9d109b77f5602f6cd46986f9b8280a280f35b5163646ebaf560e01b8152908101849052602490fd5b905060449251916301d4003760e61b8352820152336024820152fd5b50908260031936011261016f577f0914bb97ca83e85ef385857d9d418f187ff630589e0c9f44db92976d8e4519cb90818452600160205280842033855260205260ff8185205416156103b457836103b1610deb565b80f35b516301d4003760e61b81529182015233602482015260449150fd5b508290346101ae5760603660031901126101ae576103eb610b42565b926024356001600160801b03948582168092036105a65760443567ffffffffffffffff968782168083036105a2577f11443b23617db34b01244d11705d34607a299c5a51f7a0bcb6a86e98bf8e1da99283895260209360018552878a20338b52855260ff888b2054161561058657506001600160a01b03909416968715610578578789526002845260ff6002888b20015416610561575090878798997f1ae7be25f03a7b2cd02903a39578c9e29d218dcc8e2b2f45f5066b8cce36992e989315610557575b90610534600293928951936104c485610b58565b8985529781168785018181528b86018281526060870186815260016080808a019182529a8852898c52968e90209751925191516001600160c01b0319951660c01b9490941667ffffffffffffffff60801b9190991b1699166001600160c01b031698909817959095178355909390565b516001820155019051151560ff801983541691161790558351928352820152a280f35b42811695506104b0565b8651630c6fd17360e41b8152908101889052602490fd5b865163d92e233d60e01b8152fd5b886044918951916301d4003760e61b8352820152336024820152fd5b8780fd5b8480fd5b5050346101ae57816003193601126101ae576020906003549051908152f35b503461016f578160031936011261016f578160209360ff926105e9610b27565b90358252600186528282206001600160a01b039091168252855220549151911615158152f35b5050346101ae57816003193601126101ae57905490516001600160a01b039091168152602090f35b5050346101ae5760203660031901126101ae5760a09181906001600160a01b0361065f610b42565b1681526002602052209081549160ff6002600183015492015416918051936001600160801b038116855267ffffffffffffffff8160801c16602086015260c01c90840152606083015215156080820152f35b509190346101ae57816003193601126101ae5733825260209260028452818320600281019384549160ff8316156109c6578451633eb20a9360e21b8152338582015267ffffffffffffffff428116976024959193929091906001600160a01b037f000000000000000000000000000000000000000000000000000000000000000016908b818981855afa9081156109bc57918c918993899161098f575b506108e9575b505050505080548060c01c80848a1611156108d4576301e13380916001600160801b038561078561078d948d610be4565b169116610c14565b049687156108bf576003548089116108a5575081546001600160c01b031660c09190911b6001600160c01b0319161781556001016107cc878254610dde565b9055600354868103908111610893576003558180808089335af1913d1561088c573d91821161087a5785519161080b601f8201601f19168a0184610b8a565b8252873d92013e5b1561084a57505080518281527fd8138f8a3f377c5259ca548e70e4c2de94f129f5a11036a15b69513cba2b426a843392a251908152f35b600d9085606494519362461bcd60e51b85528401528201526c1d1c985b9cd9995c8819985a5b609a1b6044820152fd5b634e487b7160e01b8152604185528390fd5b5050610813565b5050634e487b7160e01b815260118352fd5b86604491878b8b5193622f087f60ea1b8552840152820152fd5b86516332559a3360e11b815233818801528590fd5b87516332559a3360e11b815233818901528690fd5b8a51635b5f348160e11b8152338b82015292839182905afa908115610985578691610958575b508985821610610950575b5060ff19169055337fc8df9387463bad688e6bee33a5517e1226baa5a9d109b77f5602f6cd46986f9b8480a23880858a82610754565b98503861091a565b61097891508b3d8d1161097e575b6109708183610b8a565b810190610bc4565b3861090f565b503d610966565b89513d88823e3d90fd5b6109af9150833d85116109b5575b6109a78183610b8a565b810190610bac565b3861074e565b503d61099d565b8a513d89823e3d90fd5b845163646ebaf560e01b81523381860152602490fd5b5050346101ae5760203660031901126101ae57602090610a026109fd610b42565b610c27565b9051908152f35b5050346101ae57816003193601126101ae57602090517f0914bb97ca83e85ef385857d9d418f187ff630589e0c9f44db92976d8e4519cb8152f35b50903461016f578060031936011261016f57813590610a61610b27565b845490936001600160a01b03918216330361026d5750828552600160205281852093169283855260205260ff818520541615610a9b578380f35b81845260016020528084208385526020528320600160ff198254161790557f2ae6a113c0ed5b78a53413ffbb7679881f11145ccfba4fb92e863dfcd5a1d2f38380a33880808380f35b8490346101ae57816003193601126101ae577f00000000000000000000000000000000000000000000000000000000000000006001600160a01b03168152602090f35b602435906001600160a01b0382168203610b3d57565b600080fd5b600435906001600160a01b0382168203610b3d57565b60a0810190811067ffffffffffffffff821117610b7457604052565b634e487b7160e01b600052604160045260246000fd5b90601f8019910116810190811067ffffffffffffffff821117610b7457604052565b90816020910312610b3d57518015158103610b3d5790565b90816020910312610b3d575167ffffffffffffffff81168103610b3d5790565b67ffffffffffffffff9182169082160391908211610bfe57565b634e487b7160e01b600052601160045260246000fd5b81810292918115918404141715610bfe57565b6001600160a01b039081166000818152600260209081526040808320815190949091610c5283610b58565b8554916001600160801b0394858416855260ff600267ffffffffffffffff998a8760801c16848901528588019660c01c8752600181015460608901520154161580156080870152610dd257874216987f000000000000000000000000000000000000000000000000000000000000000016918351633eb20a9360e21b81528160048201528281602481875afa908115610dc857908a9695949392918a91610dab575b50610d38575b50505050511692838587161115610d2f57506301e133809492610d2b9492610d2492511693610be4565b1690610c14565b0490565b94505050505090565b8394955060248293945180958193635b5f348160e11b835260048301525afa928315610da257508692610d85575b50508686821610610d7d575b908180808894610cfa565b955084610d72565b610d9b9250803d1061097e576109708183610b8a565b3880610d66565b513d88823e3d90fd5b610dc29150833d85116109b5576109a78183610b8a565b38610cf4565b85513d8b823e3d90fd5b50505050505091505090565b91908201809211610bfe57565b7fa1dd612b9278fe0bb5d89ed1f642dc3678d0e558630c5a4a8df212ba2197cdb46040610e1a34600354610dde565b806003558151903482526020820152a156fea2646970667358221220947312a1db308f57e9daf1b9b445348ebaf065ede2b2979bf8f9fa7d3483f0de64736f6c63430008180033000000000000000000000000f39fd6e51aad88f6f4ce6ab8827279cfffb922660000000000000000000000009fe46736679d2d9a65f0992f2272de9f3c7fa6e0",
        "nonce": "0x4",
        "chainId": "0x7a69"
      },
      "additionalContracts": [],
      "isFixedGasLimit": false
    },
    {
      "hash": "0x528eec76c627f7569ec90b7938062039df6fa50a0f66712c297b6ecceb44314c",
      "transactionType": "CREATE",
      "contractName": "VestaRouter",
      "contractAddress": "0x5fc8d32690cc91d4c39d9d3abcbd16989f875707",
      "function": null,
      "arguments": [
        "0xf39Fd6e51aad88F6F4ce6aB8827279cffFb92266",
        "0x5FbDB2315678afecb367f032d93F642f64180aa3",
        "0xCf7Ed3AccA5a467e9e704C703E8D87F634fB0Fc9",
        "0xDc64a140Aa3E981100a9becA4E685f962f0cF6C9"
      ],
      "transaction": {
        "from": "0xf39fd6e51aad88f6f4ce6ab8827279cfffb92266",
        "gas": "0xc3c6b",
        "value": "0x0",
        "input": "0x60e03461016757601f610b2f38819003918201601f19168301916001600160401b0383118484101761016c578084926080946040528339810103126101675780516001600160a01b039190828116908190036101675760208201519083821692838303610167576040810151938585169182860361016757606001519586169081870361016757831561015557600080546001600160a01b0319168517815560405194907f8be0079c531659141344cd1fd0a4f28419497f9722a3daafe3b4186f6b6457e08180a31591821561014c575b508115610143575b50610134575060805260a05260c0526040516109ac908161018382396080518181816101610152610686015260a0518181816101a50152818161071501526108d0015260c05181818161020c015281816105d4015261077d0152f35b63d92e233d60e01b8152600490fd5b905015386100d8565b159150386100d0565b60405163d92e233d60e01b8152600490fd5b600080fd5b634e487b7160e01b600052604160045260246000fdfe6080604081815260049081361015610022575b505050361561002057600080fd5b005b600092833560e01c90816316f0115b146108bc575080632f2ff15d1461081d57806350017f3e146106b557806356397c35146106715780638da5cb5b1461064957806391d1485414610603578063cecf13f5146105bf578063d547741f14610512578063f2fde38b14610483578063f5b541a6146104445763ff236359036100125734610440576080366003190112610440576100bd61091a565b91602490813591604435906fffffffffffffffffffffffffffffffff821680920361043c576064359267ffffffffffffffff808516809503610438577f97667070c54ef182b0f5858b034beac1b6f3089aa2d3188bb1e8929f4fa9b929808a526001602052878a203360005260205260ff8860002054161561041c5750865163156d12cb60e11b81526001600160a01b0398891683820181905298919060c08186817f000000000000000000000000000000000000000000000000000000000000000087165afa908115610412578b91610342575b506060915001511561032d5790818993927f000000000000000000000000000000000000000000000000000000000000000016803b15610329578851637bf0862160e01b815230848201908152602081018a90529091869183919082908490829060400103925af1801561030b57908591610315575b50507f00000000000000000000000000000000000000000000000000000000000000001690813b156102f35787516316c1a85160e31b8152848183818b875af1801561030b579085916102f7575b5050813b156102f35760648991858094888c5197889687956327d4d91160e21b87528601528401528960448401525af180156102e9576102cb575b50509083606093927f49a6c1172db54675883ee470ef779b91bccca4618a10365523473e0f0e4fbdb995519384526020840152820152a280f35b6102d89094939294610930565b6102e55790918538610291565b8580fd5b86513d84823e3d90fd5b8380fd5b61030090610930565b6102f3578338610256565b89513d87823e3d90fd5b61031e90610930565b6102f3578338610208565b8480fd5b508551636a059cf560e01b8152908101879052fd5b905060c0913d60c01161040a575b601f8301601f1916820192818411838510176103f6578260c091858d52810103126103f25760c08301908111838210176103de576060929160a0918b526103968161095a565b83526103a46020820161095a565b60208401526103b48b8201610969565b8b8401526103c3848201610969565b8484015260808101516080840152015160a082015238610192565b85604186634e487b7160e01b600052526000fd5b8b80fd5b86604187634e487b7160e01b600052526000fd5b3d9250610350565b89513d8d823e3d90fd5b60449391508751926301d4003760e61b84528301523390820152fd5b8880fd5b8680fd5b8280fd5b83823461047f578160031936011261047f57602090517f97667070c54ef182b0f5858b034beac1b6f3089aa2d3188bb1e8929f4fa9b9298152f35b5080fd5b5090346104405760203660031901126104405761049e61091a565b8354916001600160a01b03808416923384900361050257169384156104f557505082907f8be0079c531659141344cd1fd0a4f28419497f9722a3daafe3b4186f6b6457e08580a36001600160a01b03191617815580f35b5163d92e233d60e01b8152fd5b85516330cd747160e01b81528390fd5b503461044057806003193601126104405781359061052e6108ff565b845490936001600160a01b0391821633036105b1575082855260016020528185209316928360005260205260ff816000205416610569578380f35b81845260016020528084208360005260205260002060ff1981541690557f155aaafb6329a2098580462df33ec4b7441b19729b9601c5fc17ae1cf99a8a528380a33880808380f35b82516330cd747160e01b8152fd5b83823461047f578160031936011261047f57517f00000000000000000000000000000000000000000000000000000000000000006001600160a01b03168152602090f35b509034610440578160031936011261044057816020936106216108ff565b9235815260018552209060018060a01b0316600052825260ff81600020541690519015158152f35b83823461047f578160031936011261047f57905490516001600160a01b039091168152602090f35b83823461047f578160031936011261047f57517f00000000000000000000000000000000000000000000000000000000000000006001600160a01b03168152602090f35b5082903461047f57602036600319011261047f578235907f97667070c54ef182b0f5858b034beac1b6f3089aa2d3188bb1e8929f4fa9b929808452600160205281842033855260205260ff82852054161561080157506001600160a01b037f000000000000000000000000000000000000000000000000000000000000000081169490853b15610329578251637bf0862160e01b815230838201908152602081018690529096869188919082908490829060400103925af180156107f7576107e3575b8495507f000000000000000000000000000000000000000000000000000000000000000016803b156103295784918351809581936316c1a85160e31b83525af19081156107da57506107c75750f35b6107d090610930565b6107d75780f35b80fd5b513d84823e3d90fd5b9390946107ef90610930565b928490610778565b83513d87823e3d90fd5b849060449251916301d4003760e61b8352820152336024820152fd5b50346104405780600319360112610440578135906108396108ff565b845490936001600160a01b0391821633036105b15750828552600160205281852093169283855260205260ff818520541615610873578380f35b81845260016020528084208385526020528320600160ff198254161790557f2ae6a113c0ed5b78a53413ffbb7679881f11145ccfba4fb92e863dfcd5a1d2f38380a33880808380f35b84903461047f578160031936011261047f577f00000000000000000000000000000000000000000000000000000000000000006001600160a01b03168152602090f35b602435906001600160a01b038216820361091557565b600080fd5b600435906001600160a01b038216820361091557565b67ffffffffffffffff811161094457604052565b634e487b7160e01b600052604160045260246000fd5b519061ffff8216820361091557565b519081151582036109155756fea2646970667358221220266ff1d09f91d1fed5babc6aa1f6ada3d5b3860cbdc845109eb08abf1ecd73e564736f6c63430008180033000000000000000000000000f39fd6e51aad88f6f4ce6ab8827279cfffb922660000000000000000000000005fbdb2315678afecb367f032d93f642f64180aa3000000000000000000000000cf7ed3acca5a467e9e704c703e8d87f634fb0fc9000000000000000000000000dc64a140aa3e981100a9beca4e685f962f0cf6c9",
        "nonce": "0x5",
        "chainId": "0x7a69"
      },
      "additionalContracts": [],
      "isFixedGasLimit": false
    },
    {
      "hash": "0xfe9afe8eaf8da30ff76ab418f94d37355b97b4d6d81ae28113034fa0046f2dee",
      "transactionType": "CREATE",
      "contractName": "StressOracle",
      "contractAddress": "0x0165878a594ca255338adfa4d48449f69242eb8f",
      "function": null,
      "arguments": [
        "0xf39Fd6e51aad88F6F4ce6aB8827279cffFb92266"
      ],
      "transaction": {
        "from": "0xf39fd6e51aad88f6f4ce6ab8827279cfffb92266",
        "gas": "0x73ea3",
        "value": "0x0",
        "input": "0x6080346100b057601f6105f238819003918201601f19168301916001600160401b038311848410176100b5578084926020946040528339810103126100b057516001600160a01b038116908190036100b057801561009e57600080546001600160a01b0319168217815560405191907f8be0079c531659141344cd1fd0a4f28419497f9722a3daafe3b4186f6b6457e08180a361052690816100cc8239f35b60405163d92e233d60e01b8152600490fd5b600080fd5b634e487b7160e01b600052604160045260246000fdfe6080604081815260048036101561001557600080fd5b600092833560e01c908163211ec541146104b9575080632f2ff15d146104195780633f60d799146103de57806345e23986146103bf5780634b0cc7b7146103a25780636f21353d146102a55780638da5cb5b1461027d57806391d1485414610237578063a49062d414610214578063c0463711146101e7578063d547741f1461013d5763f2fde38b146100a757600080fd5b34610139576020366003190112610139576001600160a01b038135818116939192908490036101355784549283169182330361012857841561011b57505082907f8be0079c531659141344cd1fd0a4f28419497f9722a3daafe3b4186f6b6457e08580a36001600160a01b03191617815580f35b5163d92e233d60e01b8152fd5b516330cd747160e01b8152fd5b8480fd5b8280fd5b50903461013957806003193601126101395781359061015a6104d5565b845490936001600160a01b0391821633036101d95750828552600160205281852093169283855260205260ff8185205416610193578380f35b8184526001602052808420838552602052832060ff1981541690557f155aaafb6329a2098580462df33ec4b7441b19729b9601c5fc17ae1cf99a8a528380a33880808380f35b82516330cd747160e01b8152fd5b50503461021057816003193601126102105760209067ffffffffffffffff600354169051908152f35b5080fd5b50503461021057816003193601126102105760209051670de0b6b3a76400008152f35b50346101395781600319360112610139578160209360ff926102576104d5565b90358252600186528282206001600160a01b039091168252855220549151911615158152f35b505034610210578160031936011261021057905490516001600160a01b039091168152602090f35b503461013957606036600319011261013957803591602435604435927f3204c940063673962b481a0395619b3dbbd137589c419e993978c1c71bcf68ec808752600160205283872033885260205260ff8488205416156103865750670de0b6b3a7640000851161036f5791816060949286947f1f291871fd5c9d8fab261c7bd708ae9a3f62f3363ea9970e21acc71de2515aaf9760025567ffffffffffffffff421667ffffffffffffffff196003541617600355558260055581519384526020840152820152a180f35b82516349c1a3db60e11b8152908101859052602490fd5b83516301d4003760e61b81529182015233602482015260449150fd5b503461013957826003193601126101395760209250549051908152f35b5050346102105781600319360112610210576020906005549051908152f35b505034610210578160031936011261021057602090517f3204c940063673962b481a0395619b3dbbd137589c419e993978c1c71bcf68ec8152f35b5090346101395780600319360112610139578135906104366104d5565b845490936001600160a01b0391821633036101d95750828552600160205281852093169283855260205260ff818520541615610470578380f35b81845260016020528084208385526020528320600160ff198254161790557f2ae6a113c0ed5b78a53413ffbb7679881f11145ccfba4fb92e863dfcd5a1d2f38380a33880808380f35b8490346102105781600319360112610210576020906002548152f35b602435906001600160a01b03821682036104eb57565b600080fdfea264697066735822122020180990a8c19b2bb077e82af993cf20697ed5dc040e4424bee1dc5c5c8e4cf564736f6c63430008180033000000000000000000000000f39fd6e51aad88f6f4ce6ab8827279cfffb92266",
        "nonce": "0x6",
        "chainId": "0x7a69"
      },
      "additionalContracts": [],
      "isFixedGasLimit": false
    },
    {
      "hash": "0xb67d2ff3a87e184fe024ff4c52fc86f3872ca465b54d1b564e961ea6ad06c809",
      "transactionType": "CREATE",
      "contractName": "BackstopVault",
      "contractAddress": "0xa513e6e4b8f2a923d98304ec87f64353c4d5c853",
      "function": null,
      "arguments": [
        "0xf39Fd6e51aad88F6F4ce6aB8827279cffFb92266",
        "0x0165878A594ca255338adfa4d48449f69242Eb8F",
        "0xDc64a140Aa3E981100a9becA4E685f962f0cF6C9",
        "700000000000000000",
        "5000"
      ],
      "transaction": {
        "from": "0xf39fd6e51aad88f6f4ce6ab8827279cfffb92266",
        "gas": "0xdde88",
        "value": "0x0",
        "input": "0x60a03461015a57601f610b7538819003918201601f191683019291906001600160401b0384118385101761015f578160a0928492604096875283398101031261015a5761004b81610175565b60208201519091906001600160a01b038082169182810361015a57610071868501610175565b908260806060870151960151961680156101495760018060a01b0319948186600054161760005588519160007f8be0079c531659141344cd1fd0a4f28419497f9722a3daafe3b4186f6b6457e08180a315801561013f575b61013057506127108611801561011f575b61010e5760805216906002541617600255600355600455516109eb908161018a82396080518181816101e8015261058c0152f35b8651635435b28960e11b8152600490fd5b50670de0b6b3a764000085116100da565b63d92e233d60e01b8152600490fd5b50838316156100c9565b875163d92e233d60e01b8152600490fd5b600080fd5b634e487b7160e01b600052604160045260246000fd5b51906001600160a01b038216820361015a5756fe608060408181526004918236101561002a575b505050361561002057600080fd5b610028610978565b005b600092833560e01c9182631c31f7101461086a5750816324ea54f41461082f5781632f2ff15d1461078e57816337bdc99b1461050357816338af3eed146104da5781638835aa6f146104bb578163884870c7146104195781638da5cb5b146103f157816391d14854146103aa578163a3b0b5a31461036f578163cd3293de14610354578163cf46a86e14610336578163d0e30db0146102c2578163d547741f14610217578163dec4c74d146101d3578163e33b7de3146101b4578163f2fde38b14610121575063ff50abdc146101005780610012565b3461011d578160031936011261011d576020906005549051908152f35b5080fd5b9050346101b05760203660031901126101b05761013c6108ec565b8354916001600160a01b0380841692338490036101a0571693841561019357505082907f8be0079c531659141344cd1fd0a4f28419497f9722a3daafe3b4186f6b6457e08580a36001600160a01b03191617815580f35b5163d92e233d60e01b8152fd5b85516330cd747160e01b81528390fd5b8280fd5b50503461011d578160031936011261011d576020906006549051908152f35b50503461011d578160031936011261011d57517f00000000000000000000000000000000000000000000000000000000000000006001600160a01b03168152602090f35b919050346101b057806003193601126101b057813590610235610907565b845490936001600160a01b0391821633036102b45750828552600160205281852093169283855260205260ff818520541661026e578380f35b8184526001602052808420838552602052832060ff1981541690557f155aaafb6329a2098580462df33ec4b7441b19729b9601c5fc17ae1cf99a8a528380a33880808380f35b82516330cd747160e01b8152fd5b919050826003193601126101b0577f8f4f2da22e8ac8f11e15f9fc141cddbb5deea8800186560abb6e68c5496619a990818452600160205280842033855260205260ff81852054161561031b5783610318610978565b80f35b516301d4003760e61b81529182015233602482015260449150fd5b9050346101b057826003193601126101b05760209250549051908152f35b50503461011d578160031936011261011d5751478152602090f35b50503461011d578160031936011261011d57602090517f8f4f2da22e8ac8f11e15f9fc141cddbb5deea8800186560abb6e68c5496619a98152f35b9050346101b057816003193601126101b0578160209360ff926103cb610907565b90358252600186528282206001600160a01b039091168252855220549151911615158152f35b50503461011d578160031936011261011d57905490516001600160a01b039091168152602090f35b83833461011d578060031936011261011d578154833590602435906001600160a01b031633036104ab576127108111801561049a575b61048a57807ffaccb0639ff7851e0e24f3b2d9ab03cd62ffb63f5b4d90aaeff85bb078c1fa489495836003555582519182526020820152a180f35b8251635435b28960e11b81528590fd5b50670de0b6b3a7640000821161044f565b82516330cd747160e01b81528590fd5b50503461011d578160031936011261011d576020906003549051908152f35b50503461011d578160031936011261011d5760025490516001600160a01b039091168152602090f35b919050346101b0576020908160031936011261078a5782357f55435dd261a4b9b3364963f7738a7a662ad9c84396d64be3365284bb7f0a504180865260018452828620338752845260ff83872054161561076e57506007549360ff85166107605760ff19948516600117600755825163211ec54160e01b8152906001600160a01b0390858382817f000000000000000000000000000000000000000000000000000000000000000086165afa928315610756578893610723575b5060035480841061070657504780156106f7578154808202918204036106e45761271090048085116106c757506105f684600654610955565b600655878080808786600254165af13d156106c2573d67ffffffffffffffff81116106af57865190610631601f8201601f19168a018361091d565b815289883d92013e5b1561067d5750907f82e416ba72d10e709b5de7ac16f5f49ff1d94f22d55bf582d353d3c313a1e8dd93929160025416948351928352820152a26007541660075580f35b845162461bcd60e51b8152908101869052600c60248201526b1c995b19585cd94819985a5b60a21b6044820152606490fd5b634e487b7160e01b8a526041835260248afd5b61063a565b855163f480e28560e01b8152918201859052602482015260449150fd5b634e487b7160e01b895260118252602489fd5b508451632fa17c5f60e11b8152fd5b85516356cfc92b60e11b8152918201849052602482015260449150fd5b9092508581813d831161074f575b61073b818361091d565b8101031261074b575191386105bd565b8780fd5b503d610731565b85513d8a823e3d90fd5b825163558a1e0360e11b8152fd5b846044918451916301d4003760e61b8352820152336024820152fd5b8380fd5b919050346101b057806003193601126101b0578135906107ac610907565b845490936001600160a01b0391821633036102b45750828552600160205281852093169283855260205260ff8185205416156107e6578380f35b81845260016020528084208385526020528320600160ff198254161790557f2ae6a113c0ed5b78a53413ffbb7679881f11145ccfba4fb92e863dfcd5a1d2f38380a33880808380f35b50503461011d578160031936011261011d57602090517f55435dd261a4b9b3364963f7738a7a662ad9c84396d64be3365284bb7f0a50418152f35b9091503461078a57602036600319011261078a576108866108ec565b84546001600160a01b039290831633036108de575016918215610193575050600280546001600160a01b031916821790557feee59a71c694e68368a1cb0d135c448051bbfb12289e6c2223b0ceb100c2321d8280a280f35b6330cd747160e01b81528390fd5b600435906001600160a01b038216820361090257565b600080fd5b602435906001600160a01b038216820361090257565b90601f8019910116810190811067ffffffffffffffff82111761093f57604052565b634e487b7160e01b600052604160045260246000fd5b9190820180921161096257565b634e487b7160e01b600052601160045260246000fd5b61098434600554610955565b6005556040513481527f2da466a7b24304f47e87fa2e1e5a81b9831ce54fec19055ce277ca2f39ba42c460203392a256fea2646970667358221220cc8522e0cc6fedd6ff1c4f8164ca65e56e8e3a391e484f0825a5e991cfe6780164736f6c63430008180033000000000000000000000000f39fd6e51aad88f6f4ce6ab8827279cfffb922660000000000000000000000000165878a594ca255338adfa4d48449f69242eb8f000000000000000000000000dc64a140aa3e981100a9beca4e685f962f0cf6c900000000000000000000000000000000000000000000000009b6e64a8ec600000000000000000000000000000000000000000000000000000000000000001388",
        "nonce": "0x7",
        "chainId": "0x7a69"
      },
      "additionalContracts": [],
      "isFixedGasLimit": false
    },
    {
      "hash": "0x160f4f17d1dac80f72107f486e5a489b57b5247c6206f5bc733a8bd8fe04f51d",
      "transactionType": "CALL",
      "contractName": "CohortLedger",
      "contractAddress": "0x5fbdb2315678afecb367f032d93f642f64180aa3",
      "function": "grantRole(bytes32,address)",
      "arguments": [
        "0xedcc084d3dcd65a1f7f23c65c46722faca6953d28e43150a467cf43e5c309238",
        "0xf39Fd6e51aad88F6F4ce6aB8827279cffFb92266"
      ],
      "transaction": {
        "from": "0xf39fd6e51aad88f6f4ce6ab8827279cfffb92266",
        "to": "0x5fbdb2315678afecb367f032d93f642f64180aa3",
        "gas": "0x1056c",
        "value": "0x0",
        "input": "0x2f2ff15dedcc084d3dcd65a1f7f23c65c46722faca6953d28e43150a467cf43e5c309238000000000000000000000000f39fd6e51aad88f6f4ce6ab8827279cfffb92266",
        "nonce": "0x8",
        "chainId": "0x7a69"
      },
      "additionalContracts": [],
      "isFixedGasLimit": false
    },
    {
      "hash": "0x0afaa8fcfc869948bb46c982ed64354bd3a5955c3d3b86f4f452c1d315c562fc",
      "transactionType": "CALL",
      "contractName": "CohortLedger",
      "contractAddress": "0x5fbdb2315678afecb367f032d93f642f64180aa3",
      "function": "grantRole(bytes32,address)",
      "arguments": [
        "0x0094841a895749e476be6e1ec6e56111257b893af810565ba728415296663b55",
        "0xf39Fd6e51aad88F6F4ce6aB8827279cffFb92266"
      ],
      "transaction": {
        "from": "0xf39fd6e51aad88f6f4ce6ab8827279cfffb92266",
        "to": "0x5fbdb2315678afecb367f032d93f642f64180aa3",
        "gas": "0x1055b",
        "value": "0x0",
        "input": "0x2f2ff15d0094841a895749e476be6e1ec6e56111257b893af810565ba728415296663b55000000000000000000000000f39fd6e51aad88f6f4ce6ab8827279cfffb92266",
        "nonce": "0x9",
        "chainId": "0x7a69"
      },
      "additionalContracts": [],
      "isFixedGasLimit": false
    },
    {
      "hash": "0xfe2914982bf7567fe0b138e2525a81336f42653dc1ab2068ffe77ce041e56bf9",
      "transactionType": "CALL",
      "contractName": "CohortLedger",
      "contractAddress": "0x5fbdb2315678afecb367f032d93f642f64180aa3",
      "function": "grantRole(bytes32,address)",
      "arguments": [
        "0xf70ccd5004a2a6f964f044c0095454c529799f8602238d52b5a197af351dd419",
        "0xf39Fd6e51aad88F6F4ce6aB8827279cffFb92266"
      ],
      "transaction": {
        "from": "0xf39fd6e51aad88f6f4ce6ab8827279cfffb92266",
        "to": "0x5fbdb2315678afecb367f032d93f642f64180aa3",
        "gas": "0x1056c",
        "value": "0x0",
        "input": "0x2f2ff15df70ccd5004a2a6f964f044c0095454c529799f8602238d52b5a197af351dd419000000000000000000000000f39fd6e51aad88f6f4ce6ab8827279cfffb92266",
        "nonce": "0xa",
        "chainId": "0x7a69"
      },
      "additionalContracts": [],
      "isFixedGasLimit": false
    },
    {
      "hash": "0x109db24314e234aef236d93e238827cf911314d053afc6c5d542f96fa7ce90b8",
      "transactionType": "CALL",
      "contractName": "FairnessGate",
      "contractAddress": "0xe7f1725e7734ce288f8367e1bb143e90bb3f0512",
      "function": "grantRole(bytes32,address)",
      "arguments": [
        "0x73da78343b6ce330897c6b382bce766962bda4698c6113a170c34403c27818a1",
        "0xf39Fd6e51aad88F6F4ce6aB8827279cffFb92266"
      ],
      "transaction": {
        "from": "0xf39fd6e51aad88f6f4ce6ab8827279cfffb92266",
        "to": "0xe7f1725e7734ce288f8367e1bb143e90bb3f0512",
        "gas": "0x11477",
        "value": "0x0",
        "input": "0x2f2ff15d73da78343b6ce330897c6b382bce766962bda4698c6113a170c34403c27818a1000000000000000000000000f39fd6e51aad88f6f4ce6ab8827279cfffb92266",
        "nonce": "0xb",
        "chainId": "0x7a69"
      },
      "additionalContracts": [],
      "isFixedGasLimit": false
    },
    {
      "hash": "0x9f1de1de6438befde12a5d88dca09df16d4836a71560ea6b9f7554e6f6742a30",
      "transactionType": "CALL",
      "contractName": "FairnessGate",
      "contractAddress": "0xe7f1725e7734ce288f8367e1bb143e90bb3f0512",
      "function": "grantRole(bytes32,address)",
      "arguments": [
        "0xb09aa5aeb3702cfd50b6b62bc4532604938f21248a27a1d5ca736082b6819cc1",
        "0xf39Fd6e51aad88F6F4ce6aB8827279cffFb92266"
      ],
      "transaction": {
        "from": "0xf39fd6e51aad88f6f4ce6ab8827279cfffb92266",
        "to": "0xe7f1725e7734ce288f8367e1bb143e90bb3f0512",
        "gas": "0x11477",
        "value": "0x0",
        "input": "0x2f2ff15db09aa5aeb3702cfd50b6b62bc4532604938f21248a27a1d5ca736082b6819cc1000000000000000000000000f39fd6e51aad88f6f4ce6ab8827279cfffb92266",
        "nonce": "0xc",
        "chainId": "0x7a69"
      },
      "additionalContracts": [],
      "isFixedGasLimit": false
    },
    {
      "hash": "0x23301ea2aef8d5e2d310c7048447829e95945d24dd669dd1fac53701d294adb1",
      "transactionType": "CALL",
      "contractName": "MortalityOracle",
      "contractAddress": "0x9fe46736679d2d9a65f0992f2272de9f3c7fa6e0",
      "function": "grantRole(bytes32,address)",
      "arguments": [
        "0x68e79a7bf1e0bc45d0a330c573bc367f9cf464fd326078812f301165fbda4ef1",
        "0xf39Fd6e51aad88F6F4ce6aB8827279cffFb92266"
      ],
      "transaction": {
        "from": "0xf39fd6e51aad88f6f4ce6ab8827279cfffb92266",
        "to": "0x9fe46736679d2d9a65f0992f2272de9f3c7fa6e0",
        "gas": "0x1146c",
        "value": "0x0",
        "input": "0x2f2ff15d68e79a7bf1e0bc45d0a330c573bc367f9cf464fd326078812f301165fbda4ef1000000000000000000000000f39fd6e51aad88f6f4ce6ab8827279cfffb92266",
        "nonce": "0xd",
        "chainId": "0x7a69"
      },
      "additionalContracts": [],
      "isFixedGasLimit": false
    },
    {
      "hash": "0xd4b2e2a29f760b3d32f0d380b173d15ec12ca994babefe88a7fb7a90545244d5",
      "transactionType": "CALL",
      "contractName": "LongevaPool",
      "contractAddress": "0xcf7ed3acca5a467e9e704c703e8d87f634fb0fc9",
      "function": "grantRole(bytes32,address)",
      "arguments": [
        "0x2561bf26f818282a3be40719542054d2173eb0d38539e8a8d3cff22f29fd2384",
        "0xf39Fd6e51aad88F6F4ce6aB8827279cffFb92266"
      ],
      "transaction": {
        "from": "0xf39fd6e51aad88f6f4ce6ab8827279cfffb92266",
        "to": "0xcf7ed3acca5a467e9e704c703e8d87f634fb0fc9",
        "gas": "0x10545",
        "value": "0x0",
        "input": "0x2f2ff15d2561bf26f818282a3be40719542054d2173eb0d38539e8a8d3cff22f29fd2384000000000000000000000000f39fd6e51aad88f6f4ce6ab8827279cfffb92266",
        "nonce": "0xe",
        "chainId": "0x7a69"
      },
      "additionalContracts": [],
      "isFixedGasLimit": false
    },
    {
      "hash": "0x6b83f660d5c81ee6decb63c31e8b44e7c0dfe5e8e1237678d9199669a7aa6eb5",
      "transactionType": "CALL",
      "contractName": "LongevaPool",
      "contractAddress": "0xcf7ed3acca5a467e9e704c703e8d87f634fb0fc9",
      "function": "grantRole(bytes32,address)",
      "arguments": [
        "0x5612063648f807201ec1c6d4f999a34ed02c6a8b521b7b99e155a6823c568736",
        "0x5FC8d32690cc91D4c39d9d3abcBD16989F875707"
      ],
      "transaction": {
        "from": "0xf39fd6e51aad88f6f4ce6ab8827279cfffb92266",
        "to": "0xcf7ed3acca5a467e9e704c703e8d87f634fb0fc9",
        "gas": "0x10545",
        "value": "0x0",
        "input": "0x2f2ff15d5612063648f807201ec1c6d4f999a34ed02c6a8b521b7b99e155a6823c5687360000000000000000000000005fc8d32690cc91d4c39d9d3abcbd16989f875707",
        "nonce": "0xf",
        "chainId": "0x7a69"
      },
      "additionalContracts": [],
      "isFixedGasLimit": false
    },
    {
      "hash": "0xb51966568d87e6d6cd98f502ad7c1ac0f46986db11118ad63cf3861f7617abf3",
      "transactionType": "CALL",
      "contractName": "LongevaPool",
      "contractAddress": "0xcf7ed3acca5a467e9e704c703e8d87f634fb0fc9",
      "function": "grantRole(bytes32,address)",
      "arguments": [
        "0x75c54964a01877e6799d0bf9bb81bacccabdf428c61a51fb4b1945e5db894095",
        "0xf39Fd6e51aad88F6F4ce6aB8827279cffFb92266"
      ],
      "transaction": {
        "from": "0xf39fd6e51aad88f6f4ce6ab8827279cfffb92266",
        "to": "0xcf7ed3acca5a467e9e704c703e8d87f634fb0fc9",
        "gas": "0x10545",
        "value": "0x0",
        "input": "0x2f2ff15d75c54964a01877e6799d0bf9bb81bacccabdf428c61a51fb4b1945e5db894095000000000000000000000000f39fd6e51aad88f6f4ce6ab8827279cfffb92266",
        "nonce": "0x10",
        "chainId": "0x7a69"
      },
      "additionalContracts": [],
      "isFixedGasLimit": false
    },
    {
      "hash": "0xb2191dde454656e9dc7d768cfcd9ec753ea6f63367d35665504f4e2162fbe9f2",
      "transactionType": "CALL",
      "contractName": "BenefitStreamer",
      "contractAddress": "0xdc64a140aa3e981100a9beca4e685f962f0cf6c9",
      "function": "grantRole(bytes32,address)",
      "arguments": [
        "0x11443b23617db34b01244d11705d34607a299c5a51f7a0bcb6a86e98bf8e1da9",
        "0x5FC8d32690cc91D4c39d9d3abcBD16989F875707"
      ],
      "transaction": {
        "from": "0xf39fd6e51aad88f6f4ce6ab8827279cfffb92266",
        "to": "0xdc64a140aa3e981100a9beca4e685f962f0cf6c9",
        "gas": "0x10507",
        "value": "0x0",
        "input": "0x2f2ff15d11443b23617db34b01244d11705d34607a299c5a51f7a0bcb6a86e98bf8e1da90000000000000000000000005fc8d32690cc91d4c39d9d3abcbd16989f875707",
        "nonce": "0x11",
        "chainId": "0x7a69"
      },
      "additionalContracts": [],
      "isFixedGasLimit": false
    },
    {
      "hash": "0x5b2be02a97d9d37c7b7ee9cb8e1c8473460c2716942147669beff7ca4b734840",
      "transactionType": "CALL",
      "contractName": "BenefitStreamer",
      "contractAddress": "0xdc64a140aa3e981100a9beca4e685f962f0cf6c9",
      "function": "grantRole(bytes32,address)",
      "arguments": [
        "0x0914bb97ca83e85ef385857d9d418f187ff630589e0c9f44db92976d8e4519cb",
        "0x5FC8d32690cc91D4c39d9d3abcBD16989F875707"
      ],
      "transaction": {
        "from": "0xf39fd6e51aad88f6f4ce6ab8827279cfffb92266",
        "to": "0xdc64a140aa3e981100a9beca4e685f962f0cf6c9",
        "gas": "0x10507",
        "value": "0x0",
        "input": "0x2f2ff15d0914bb97ca83e85ef385857d9d418f187ff630589e0c9f44db92976d8e4519cb0000000000000000000000005fc8d32690cc91d4c39d9d3abcbd16989f875707",
        "nonce": "0x12",
        "chainId": "0x7a69"
      },
      "additionalContracts": [],
      "isFixedGasLimit": false
    },
    {
      "hash": "0x967ea36cd0da7685cd3201e357b86e38b1f399739c23ef42595b9452c6cd35c4",
      "transactionType": "CALL",
      "contractName": "VestaRouter",
      "contractAddress": "0x5fc8d32690cc91d4c39d9d3abcbd16989f875707",
      "function": "grantRole(bytes32,address)",
      "arguments": [
        "0x97667070c54ef182b0f5858b034beac1b6f3089aa2d3188bb1e8929f4fa9b929",
        "0xf39Fd6e51aad88F6F4ce6aB8827279cffFb92266"
      ],
      "transaction": {
        "from": "0xf39fd6e51aad88f6f4ce6ab8827279cfffb92266",
        "to": "0x5fc8d32690cc91d4c39d9d3abcbd16989f875707",
        "gas": "0x10507",
        "value": "0x0",
        "input": "0x2f2ff15d97667070c54ef182b0f5858b034beac1b6f3089aa2d3188bb1e8929f4fa9b929000000000000000000000000f39fd6e51aad88f6f4ce6ab8827279cfffb92266",
        "nonce": "0x13",
        "chainId": "0x7a69"
      },
      "additionalContracts": [],
      "isFixedGasLimit": false
    },
    {
      "hash": "0x1e4a10d8c91d46dbc0dd740a5954897c6afc9261dc5892b37fd6cde2c426ef52",
      "transactionType": "CALL",
      "contractName": "StressOracle",
      "contractAddress": "0x0165878a594ca255338adfa4d48449f69242eb8f",
      "function": "grantRole(bytes32,address)",
      "arguments": [
        "0x3204c940063673962b481a0395619b3dbbd137589c419e993978c1c71bcf68ec",
        "0xf39Fd6e51aad88F6F4ce6aB8827279cffFb92266"
      ],
      "transaction": {
        "from": "0xf39fd6e51aad88f6f4ce6ab8827279cfffb92266",
        "to": "0x0165878a594ca255338adfa4d48449f69242eb8f",
        "gas": "0x10507",
        "value": "0x0",
        "input": "0x2f2ff15d3204c940063673962b481a0395619b3dbbd137589c419e993978c1c71bcf68ec000000000000000000000000f39fd6e51aad88f6f4ce6ab8827279cfffb92266",
        "nonce": "0x14",
        "chainId": "0x7a69"
      },
      "additionalContracts": [],
      "isFixedGasLimit": false
    },
    {
      "hash": "0x48119ce38e0c5e68eaa768e56975acff201e4f5ebc0b3df6def127a2775457d5",
      "transactionType": "CALL",
      "contractName": "BackstopVault",
      "contractAddress": "0xa513e6e4b8f2a923d98304ec87f64353c4d5c853",
      "function": "grantRole(bytes32,address)",
      "arguments": [
        "0x55435dd261a4b9b3364963f7738a7a662ad9c84396d64be3365284bb7f0a5041",
        "0xf39Fd6e51aad88F6F4ce6aB8827279cffFb92266"
      ],
      "transaction": {
        "from": "0xf39fd6e51aad88f6f4ce6ab8827279cfffb92266",
        "to": "0xa513e6e4b8f2a923d98304ec87f64353c4d5c853",
        "gas": "0x1052e",
        "value": "0x0",
        "input": "0x2f2ff15d55435dd261a4b9b3364963f7738a7a662ad9c84396d64be3365284bb7f0a5041000000000000000000000000f39fd6e51aad88f6f4ce6ab8827279cfffb92266",
        "nonce": "0x15",
        "chainId": "0x7a69"
      },
      "additionalContracts": [],
      "isFixedGasLimit": false
    },
    {
      "hash": "0xa7ba5aec45e92d92a496b04a6beea96f720651178ea37107ff0ac1ddb359d501",
      "transactionType": "CALL",
      "contractName": "BackstopVault",
      "contractAddress": "0xa513e6e4b8f2a923d98304ec87f64353c4d5c853",
      "function": "grantRole(bytes32,address)",
      "arguments": [
        "0x8f4f2da22e8ac8f11e15f9fc141cddbb5deea8800186560abb6e68c5496619a9",
        "0xf39Fd6e51aad88F6F4ce6aB8827279cffFb92266"
      ],
      "transaction": {
        "from": "0xf39fd6e51aad88f6f4ce6ab8827279cfffb92266",
        "to": "0xa513e6e4b8f2a923d98304ec87f64353c4d5c853",
        "gas": "0x1052e",
        "value": "0x0",
        "input": "0x2f2ff15d8f4f2da22e8ac8f11e15f9fc141cddbb5deea8800186560abb6e68c5496619a9000000000000000000000000f39fd6e51aad88f6f4ce6ab8827279cfffb92266",
        "nonce": "0x16",
        "chainId": "0x7a69"
      },
      "additionalContracts": [],
      "isFixedGasLimit": false
    }
  ],
  "receipts": [
    {
      "status": "0x1",
      "cumulativeGasUsed": "0xc149a",
      "logs": [
        {
          "address": "0x5fbdb2315678afecb367f032d93f642f64180aa3",
          "topics": [
            "0x8be0079c531659141344cd1fd0a4f28419497f9722a3daafe3b4186f6b6457e0",
            "0x0000000000000000000000000000000000000000000000000000000000000000",
            "0x000000000000000000000000f39fd6e51aad88f6f4ce6ab8827279cfffb92266"
          ],
          "data": "0x",
          "blockHash": "0x0f78249e9aa3e28298541f4d97a701eb9725fac4b1626d7f8042363d2b657d83",
          "blockNumber": "0x1",
          "blockTimestamp": "0x69e3fd03",
          "transactionHash": "0x769a2d5e397267e105d0189568e334c4bfab99214a9fe37fccc90a82306f205c",
          "transactionIndex": "0x0",
          "logIndex": "0x0",
          "removed": false
        }
      ],
      "logsBloom": "0x00000000000000000000000000000000000000000000000000800000000000000000000000000000000000000000000000000000000000000000000000000000000000000000000000000000000000000001000000000000000000000000000000000040020000000000000100000800000000000000000000000000000000400000000000000000000000000000000000000000000000000000000200000000000000000000000000000000000000000000000000000000000000000000000000000040000000200000000000000000000000002000000000000000000020000000000000000000000000000000000000000000000000000000000000000000",
      "type": "0x2",
      "transactionHash": "0x769a2d5e397267e105d0189568e334c4bfab99214a9fe37fccc90a82306f205c",
      "transactionIndex": "0x0",
      "blockHash": "0x0f78249e9aa3e28298541f4d97a701eb9725fac4b1626d7f8042363d2b657d83",
      "blockNumber": "0x1",
      "gasUsed": "0xc149a",
      "effectiveGasPrice": "0x3b9aca01",
      "blobGasPrice": "0x1",
      "from": "0xf39fd6e51aad88f6f4ce6ab8827279cfffb92266",
      "to": null,
      "contractAddress": "0x5fbdb2315678afecb367f032d93f642f64180aa3"
    },
    {
      "status": "0x1",
      "cumulativeGasUsed": "0x14e63f",
      "logs": [
        {
          "address": "0xe7f1725e7734ce288f8367e1bb143e90bb3f0512",
          "topics": [
            "0x8be0079c531659141344cd1fd0a4f28419497f9722a3daafe3b4186f6b6457e0",
            "0x0000000000000000000000000000000000000000000000000000000000000000",
            "0x000000000000000000000000f39fd6e51aad88f6f4ce6ab8827279cfffb92266"
          ],
          "data": "0x",
          "blockHash": "0x5569b2a6ad1945f97ff6d5142be53eb755d6ab5d7c6cfb4ae281f711139abcad",
          "blockNumber": "0x2",
          "blockTimestamp": "0x69e3fd03",
          "transactionHash": "0x528eec76c627f7569ec90b7938062039df6fa50a0f66712c297b6ecceb44314c",
          "transactionIndex": "0x0",
          "logIndex": "0x0",
          "removed": false
        }
      ],
      "logsBloom": "0x00000000000000000000000000000000000000000000000000800000000000000000000000000000000000000000000010000000000000000000000000000000000000000000000000000000000000000001000000000000000000000000000000000000020000000000000100000800000000000000000000000000000000400000000000000000000000000000000000000000000000000000000000000000000000000000000000000000000000000000000000000000000000000000000000000000000000200000000000001000000000002000000000000000000020000000000000000000000000000000000000000000000000800000000000000000",
      "type": "0x2",
      "transactionHash": "0x528eec76c627f7569ec90b7938062039df6fa50a0f66712c297b6ecceb44314c",
      "transactionIndex": "0x0",
      "blockHash": "0x5569b2a6ad1945f97ff6d5142be53eb755d6ab5d7c6cfb4ae281f711139abcad",
      "blockNumber": "0x2",
      "gasUsed": "0x14e63f",
      "effectiveGasPrice": "0x348c1c6f",
      "blobGasPrice": "0x1",
      "from": "0xf39fd6e51aad88f6f4ce6ab8827279cfffb92266",
      "to": null,
      "contractAddress": "0xe7f1725e7734ce288f8367e1bb143e90bb3f0512"
    },
    {
      "status": "0x1",
      "cumulativeGasUsed": "0x6a429",
      "logs": [
        {
          "address": "0x9fe46736679d2d9a65f0992f2272de9f3c7fa6e0",
          "topics": [
            "0x8be0079c531659141344cd1fd0a4f28419497f9722a3daafe3b4186f6b6457e0",
            "0x0000000000000000000000000000000000000000000000000000000000000000",
            "0x000000000000000000000000f39fd6e51aad88f6f4ce6ab8827279cfffb92266"
          ],
          "data": "0x",
          "blockHash": "0x65f7c56f704c2be4d97c94302a83e98937a2027cc30c867bd836e55d9286bb47",
          "blockNumber": "0x3",
          "blockTimestamp": "0x69e3fd03",
          "transactionHash": "0xdb11a8160a62611e2d9837e5dd28c736bcc2041067704cc809da01ead064b745",
          "transactionIndex": "0x0",
          "logIndex": "0x0",
          "removed": false
        }
      ],
      "logsBloom": "0x00000000000000000000000000000000000000000000000000800000000000000000000000000000000000000000000000000000000040200000000000000000000000000000000000000000000000000001000000000000000000000000000000000000020000000000000100000800000000000000000000000000000000400000000000000000000000000000000000000000000000000000000000000000000000000000000000000000000000000000000000000000000000000000000000000000000000200000000000000000000000002000000000000000000020000000000000000000000000000000000000000000000000400000000000000000",
      "type": "0x2",
      "transactionHash": "0xdb11a8160a62611e2d9837e5dd28c736bcc2041067704cc809da01ead064b745",
      "transactionIndex": "0x0",
      "blockHash": "0x65f7c56f704c2be4d97c94302a83e98937a2027cc30c867bd836e55d9286bb47",
      "blockNumber": "0x3",
      "gasUsed": "0x6a429",
      "effectiveGasPrice": "0x2e94233f",
      "blobGasPrice": "0x1",
      "from": "0xf39fd6e51aad88f6f4ce6ab8827279cfffb92266",
      "to": null,
      "contractAddress": "0x9fe46736679d2d9a65f0992f2272de9f3c7fa6e0"
    },
    {
      "status": "0x1",
      "cumulativeGasUsed": "0x11bdd2",
      "logs": [
        {
          "address": "0xcf7ed3acca5a467e9e704c703e8d87f634fb0fc9",
          "topics": [
            "0x8be0079c531659141344cd1fd0a4f28419497f9722a3daafe3b4186f6b6457e0",
            "0x0000000000000000000000000000000000000000000000000000000000000000",
            "0x000000000000000000000000f39fd6e51aad88f6f4ce6ab8827279cfffb92266"
          ],
          "data": "0x",
          "blockHash": "0x65f7c56f704c2be4d97c94302a83e98937a2027cc30c867bd836e55d9286bb47",
          "blockNumber": "0x3",
          "blockTimestamp": "0x69e3fd03",
          "transactionHash": "0xaac497e4112b7f396b283e115f8c5719697c90b2bd53668d57927a873b08e293",
          "transactionIndex": "0x1",
          "logIndex": "0x1",
          "removed": false
        }
      ],
      "logsBloom": "0x00000000000000000000000000000000000000000000000000800000000000000000000000000000000000000000080000000000000000000000000000000001000000000000000000000000000000000001000000000000000000000000000000000000020000000000000100000800000000000000000000000000000000400000000008000000000000000000000000000000000000000000000000000000000000000000000000000000000000000000000000000000000000000000000000000000000000200000000000000000000000002000000000000000000020000000000000000000000000000000000000000000000000000000000000000000",
      "type": "0x2",
      "transactionHash": "0xaac497e4112b7f396b283e115f8c5719697c90b2bd53668d57927a873b08e293",
      "transactionIndex": "0x1",
      "blockHash": "0x65f7c56f704c2be4d97c94302a83e98937a2027cc30c867bd836e55d9286bb47",
      "blockNumber": "0x3",
      "gasUsed": "0xb19a9",
      "effectiveGasPrice": "0x2e94233f",
      "blobGasPrice": "0x1",
      "from": "0xf39fd6e51aad88f6f4ce6ab8827279cfffb92266",
      "to": null,
      "contractAddress": "0xcf7ed3acca5a467e9e704c703e8d87f634fb0fc9"
    },
    {
      "status": "0x1",
      "cumulativeGasUsed": "0x1f1f2c",
      "logs": [
        {
          "address": "0xdc64a140aa3e981100a9beca4e685f962f0cf6c9",
          "topics": [
            "0x8be0079c531659141344cd1fd0a4f28419497f9722a3daafe3b4186f6b6457e0",
            "0x0000000000000000000000000000000000000000000000000000000000000000",
            "0x000000000000000000000000f39fd6e51aad88f6f4ce6ab8827279cfffb92266"
          ],
          "data": "0x",
          "blockHash": "0x65f7c56f704c2be4d97c94302a83e98937a2027cc30c867bd836e55d9286bb47",
          "blockNumber": "0x3",
          "blockTimestamp": "0x69e3fd03",
          "transactionHash": "0xd5133a294ee9b99510f9d26f38e5a0eabd213b82cb5f8f83422342f79a90ccab",
          "transactionIndex": "0x2",
          "logIndex": "0x2",
          "removed": false
        }
      ],
      "logsBloom": "0x00000000000000000000000000000000000000000000000000800000000000000000000000000000000000000000000000000000000000000000000000000000000000000000000000000000000000000001000000000000000000000000000000000000020000000000000100000800000000000000000000000000000000400000000000000000000000000000000000000000000000000000000000000000000000000000000000000000000000000000000000000000000000000000000000000000000000200000000000000000000000002020000000000000000020000000000000000000000000000000000000000001000000000100000000000000",
      "type": "0x2",
      "transactionHash": "0xd5133a294ee9b99510f9d26f38e5a0eabd213b82cb5f8f83422342f79a90ccab",
      "transactionIndex": "0x2",
      "blockHash": "0x65f7c56f704c2be4d97c94302a83e98937a2027cc30c867bd836e55d9286bb47",
      "blockNumber": "0x3",
      "gasUsed": "0xd615a",
      "effectiveGasPrice": "0x2e94233f",
      "blobGasPrice": "0x1",
      "from": "0xf39fd6e51aad88f6f4ce6ab8827279cfffb92266",
      "to": null,
      "contractAddress": "0xdc64a140aa3e981100a9beca4e685f962f0cf6c9"
    },
    {
      "status": "0x1",
      "cumulativeGasUsed": "0x96a4a",
      "logs": [
        {
          "address": "0x5fc8d32690cc91d4c39d9d3abcbd16989f875707",
          "topics": [
            "0x8be0079c531659141344cd1fd0a4f28419497f9722a3daafe3b4186f6b6457e0",
            "0x0000000000000000000000000000000000000000000000000000000000000000",
            "0x000000000000000000000000f39fd6e51aad88f6f4ce6ab8827279cfffb92266"
          ],
          "data": "0x",
          "blockHash": "0x9db7782d6369aacb6e2b812f396b8d9b81ae148f202b996ace77f8ac6ab770ab",
          "blockNumber": "0x4",
          "blockTimestamp": "0x69e3fd03",
          "transactionHash": "0x1e4a10d8c91d46dbc0dd740a5954897c6afc9261dc5892b37fd6cde2c426ef52",
          "transactionIndex": "0x0",
          "logIndex": "0x0",
          "removed": false
        }
      ],
      "logsBloom": "0x00000000000000000000000000000000000000000000000000800000000000000000000000000000000000000000000000000000000000000000000000000000000000000000000000000000000000000001000240000000000000000000000000000000020000000000000100000800000000000000000000000000000000400000000000000000000000000000000000000000000000000000000000000000000000000000000000000000000000000000000000000000000000000000000000000000000000200000000000000000000000002000000000000001000020000000000000000000000000000000000000000000000000000000000000000000",
      "type": "0x2",
      "transactionHash": "0x1e4a10d8c91d46dbc0dd740a5954897c6afc9261dc5892b37fd6cde2c426ef52",
      "transactionIndex": "0x0",
      "blockHash": "0x9db7782d6369aacb6e2b812f396b8d9b81ae148f202b996ace77f8ac6ab770ab",
      "blockNumber": "0x4",
      "gasUsed": "0x96a4a",
      "effectiveGasPrice": "0x298c4a6a",
      "blobGasPrice": "0x1",
      "from": "0xf39fd6e51aad88f6f4ce6ab8827279cfffb92266",
      "to": null,
      "contractAddress": "0x5fc8d32690cc91d4c39d9d3abcbd16989f875707"
    },
    {
      "status": "0x1",
      "cumulativeGasUsed": "0xefd51",
      "logs": [
        {
          "address": "0x0165878a594ca255338adfa4d48449f69242eb8f",
          "topics": [
            "0x8be0079c531659141344cd1fd0a4f28419497f9722a3daafe3b4186f6b6457e0",
            "0x0000000000000000000000000000000000000000000000000000000000000000",
            "0x000000000000000000000000f39fd6e51aad88f6f4ce6ab8827279cfffb92266"
          ],
          "data": "0x",
          "blockHash": "0x9db7782d6369aacb6e2b812f396b8d9b81ae148f202b996ace77f8ac6ab770ab",
          "blockNumber": "0x4",
          "blockTimestamp": "0x69e3fd03",
          "transactionHash": "0x48119ce38e0c5e68eaa768e56975acff201e4f5ebc0b3df6def127a2775457d5",
          "transactionIndex": "0x1",
          "logIndex": "0x1",
          "removed": false
        }
      ],
      "logsBloom": "0x00000000000000000000000000000000000000000000000000800000000000000000000000000000000000000000000000000000000000000000000000000000001000000000000000000000000000000001000000000000000000000000000000000000020000000000000100000800000000000000000000000000000000440000000000000000000000000000000000000000000000000000000000000000000000000000000000000000000000000000000000000000000000000000000000000004000000200000000000000000000000002000000000000000000020000000000000000000000000000000000000000000000000000000000000000000",
      "type": "0x2",
      "transactionHash": "0x48119ce38e0c5e68eaa768e56975acff201e4f5ebc0b3df6def127a2775457d5",
      "transactionIndex": "0x1",
      "blockHash": "0x9db7782d6369aacb6e2b812f396b8d9b81ae148f202b996ace77f8ac6ab770ab",
      "blockNumber": "0x4",
      "gasUsed": "0x59307",
      "effectiveGasPrice": "0x298c4a6a",
      "blobGasPrice": "0x1",
      "from": "0xf39fd6e51aad88f6f4ce6ab8827279cfffb92266",
      "to": null,
      "contractAddress": "0x0165878a594ca255338adfa4d48449f69242eb8f"
    },
    {
      "status": "0x1",
      "cumulativeGasUsed": "0x19a941",
      "logs": [
        {
          "address": "0xa513e6e4b8f2a923d98304ec87f64353c4d5c853",
          "topics": [
            "0x8be0079c531659141344cd1fd0a4f28419497f9722a3daafe3b4186f6b6457e0",
            "0x0000000000000000000000000000000000000000000000000000000000000000",
            "0x000000000000000000000000f39fd6e51aad88f6f4ce6ab8827279cfffb92266"
          ],
          "data": "0x",
          "blockHash": "0x9db7782d6369aacb6e2b812f396b8d9b81ae148f202b996ace77f8ac6ab770ab",
          "blockNumber": "0x4",
          "blockTimestamp": "0x69e3fd03",
          "transactionHash": "0x23301ea2aef8d5e2d310c7048447829e95945d24dd669dd1fac53701d294adb1",
          "transactionIndex": "0x2",
          "logIndex": "0x2",
          "removed": false
        }
      ],
      "logsBloom": "0x00000000000000000000000000000000000000000000000000800000000000010000000000000000000000000000000000000000000000000000000000000000000000000000000000000000000000000001000010000000010000000000000000000000020000000000000100000800000000000000000000000000000000400000000000000000000000000000000000000000000000000000000000000000000000000000000000000000000000000000000000000000000000000000000000000000000000200000000000000000000000002000000000000000000020000000000000000000000000000000000000000000000000000000000000000000",
      "type": "0x2",
      "transactionHash": "0x23301ea2aef8d5e2d310c7048447829e95945d24dd669dd1fac53701d294adb1",
      "transactionIndex": "0x2",
      "blockHash": "0x9db7782d6369aacb6e2b812f396b8d9b81ae148f202b996ace77f8ac6ab770ab",
      "blockNumber": "0x4",
      "gasUsed": "0xaabf0",
      "effectiveGasPrice": "0x298c4a6a",
      "blobGasPrice": "0x1",
      "from": "0xf39fd6e51aad88f6f4ce6ab8827279cfffb92266",
      "to": null,
      "contractAddress": "0xa513e6e4b8f2a923d98304ec87f64353c4d5c853"
    },
    {
      "status": "0x1",
      "cumulativeGasUsed": "0x1a6685",
      "logs": [
        {
          "address": "0x5fbdb2315678afecb367f032d93f642f64180aa3",
          "topics": [
            "0x2ae6a113c0ed5b78a53413ffbb7679881f11145ccfba4fb92e863dfcd5a1d2f3",
            "0xedcc084d3dcd65a1f7f23c65c46722faca6953d28e43150a467cf43e5c309238",
            "0x000000000000000000000000f39fd6e51aad88f6f4ce6ab8827279cfffb92266"
          ],
          "data": "0x",
          "blockHash": "0x9db7782d6369aacb6e2b812f396b8d9b81ae148f202b996ace77f8ac6ab770ab",
          "blockNumber": "0x4",
          "blockTimestamp": "0x69e3fd03",
          "transactionHash": "0x9f1de1de6438befde12a5d88dca09df16d4836a71560ea6b9f7554e6f6742a30",
          "transactionIndex": "0x3",
          "logIndex": "0x3",
          "removed": false
        }
      ],
      "logsBloom": "0x00000000001000000000000000000000000000000000000000000000000000000000000000000000000000001002000000000000000000000000000000000000000000000000000000400000000000000000000000000000000000000000000000000040000000000000000100000000000000000000800000000000000000000000000000000000000000000000000000000000000000000000000200000000000000000000000000000000000000000000000000000000000000000000000000000040000000200000000000000000000000002000000000000000000000000000004000000000000000000000000000000000000000000000000000000000",
      "type": "0x2",
      "transactionHash": "0x9f1de1de6438befde12a5d88dca09df16d4836a71560ea6b9f7554e6f6742a30",
      "transactionIndex": "0x3",
      "blockHash": "0x9db7782d6369aacb6e2b812f396b8d9b81ae148f202b996ace77f8ac6ab770ab",
      "blockNumber": "0x4",
      "gasUsed": "0xbd44",
      "effectiveGasPrice": "0x298c4a6a",
      "blobGasPrice": "0x1",
      "from": "0xf39fd6e51aad88f6f4ce6ab8827279cfffb92266",
      "to": "0x5fbdb2315678afecb367f032d93f642f64180aa3",
      "contractAddress": null
    },
    {
      "status": "0x1",
      "cumulativeGasUsed": "0x1b23bd",
      "logs": [
        {
          "address": "0x5fbdb2315678afecb367f032d93f642f64180aa3",
          "topics": [
            "0x2ae6a113c0ed5b78a53413ffbb7679881f11145ccfba4fb92e863dfcd5a1d2f3",
            "0x0094841a895749e476be6e1ec6e56111257b893af810565ba728415296663b55",
            "0x000000000000000000000000f39fd6e51aad88f6f4ce6ab8827279cfffb92266"
          ],
          "data": "0x",
          "blockHash": "0x9db7782d6369aacb6e2b812f396b8d9b81ae148f202b996ace77f8ac6ab770ab",
          "blockNumber": "0x4",
          "blockTimestamp": "0x69e3fd03",
          "transactionHash": "0x5b2be02a97d9d37c7b7ee9cb8e1c8473460c2716942147669beff7ca4b734840",
          "transactionIndex": "0x4",
          "logIndex": "0x4",
          "removed": false
        }
      ],
      "logsBloom": "0x00000000000000000000000000000000000000000000000000000000000000000000000000000000000000000000000000000000000000000000000000000000000000000000000000400000000000000000000000000000000000000000000000000040000000000000000100000000000000000000800000000000000000000000000000000000000000000000000000000000000040000000000200000000000000000000000000000000000100000000000000008000000000000000000000000040000000200000000000000000000000002000000000000000000000000000004000000000000000000000000000000000000000000000000000000000",
      "type": "0x2",
      "transactionHash": "0x5b2be02a97d9d37c7b7ee9cb8e1c8473460c2716942147669beff7ca4b734840",
      "transactionIndex": "0x4",
      "blockHash": "0x9db7782d6369aacb6e2b812f396b8d9b81ae148f202b996ace77f8ac6ab770ab",
      "blockNumber": "0x4",
      "gasUsed": "0xbd38",
      "effectiveGasPrice": "0x298c4a6a",
      "blobGasPrice": "0x1",
      "from": "0xf39fd6e51aad88f6f4ce6ab8827279cfffb92266",
      "to": "0x5fbdb2315678afecb367f032d93f642f64180aa3",
      "contractAddress": null
    },
    {
      "status": "0x1",
      "cumulativeGasUsed": "0x1be101",
      "logs": [
        {
          "address": "0x5fbdb2315678afecb367f032d93f642f64180aa3",
          "topics": [
            "0x2ae6a113c0ed5b78a53413ffbb7679881f11145ccfba4fb92e863dfcd5a1d2f3",
            "0xf70ccd5004a2a6f964f044c0095454c529799f8602238d52b5a197af351dd419",
            "0x000000000000000000000000f39fd6e51aad88f6f4ce6ab8827279cfffb92266"
          ],
          "data": "0x",
          "blockHash": "0x9db7782d6369aacb6e2b812f396b8d9b81ae148f202b996ace77f8ac6ab770ab",
          "blockNumber": "0x4",
          "blockTimestamp": "0x69e3fd03",
          "transactionHash": "0x6b83f660d5c81ee6decb63c31e8b44e7c0dfe5e8e1237678d9199669a7aa6eb5",
          "transactionIndex": "0x5",
          "logIndex": "0x5",
          "removed": false
        }
      ],
      "logsBloom": "0x00000000000000000000000000000000000000000000000000000000000000000000000000000000000000000000000000000000000000000000000000000000000000000000000000400000000000000000000200000000000000000000000000000040000000000000000100000000000000000000800000000000000000000000000000000000000000000000000000000000000000000000000200000000000000001000000000000000000000000000000000000000000000000000000000000040000000200000000000000000000000002000080000000000000000000000004000000000000000000000000000000000000000000000000000000000",
      "type": "0x2",
      "transactionHash": "0x6b83f660d5c81ee6decb63c31e8b44e7c0dfe5e8e1237678d9199669a7aa6eb5",
      "transactionIndex": "0x5",
      "blockHash": "0x9db7782d6369aacb6e2b812f396b8d9b81ae148f202b996ace77f8ac6ab770ab",
      "blockNumber": "0x4",
      "gasUsed": "0xbd44",
      "effectiveGasPrice": "0x298c4a6a",
      "blobGasPrice": "0x1",
      "from": "0xf39fd6e51aad88f6f4ce6ab8827279cfffb92266",
      "to": "0x5fbdb2315678afecb367f032d93f642f64180aa3",
      "contractAddress": null
    },
    {
      "status": "0x1",
      "cumulativeGasUsed": "0x1c9e0b",
      "logs": [
        {
          "address": "0xe7f1725e7734ce288f8367e1bb143e90bb3f0512",
          "topics": [
            "0x2ae6a113c0ed5b78a53413ffbb7679881f11145ccfba4fb92e863dfcd5a1d2f3",
            "0x73da78343b6ce330897c6b382bce766962bda4698c6113a170c34403c27818a1",
            "0x000000000000000000000000f39fd6e51aad88f6f4ce6ab8827279cfffb92266"
          ],
          "data": "0x",
          "blockHash": "0x9db7782d6369aacb6e2b812f396b8d9b81ae148f202b996ace77f8ac6ab770ab",
          "blockNumber": "0x4",
          "blockTimestamp": "0x69e3fd03",
          "transactionHash": "0xd4b2e2a29f760b3d32f0d380b173d15ec12ca994babefe88a7fb7a90545244d5",
          "transactionIndex": "0x6",
          "logIndex": "0x6",
          "removed": false
        }
      ],
      "logsBloom": "0x00000000000000000000000000000000000000000000000000000000000000000000000000000000000000000000000010000000000000000000000000008000000000000000000000400000000000000000000000000000000100000000000000000000000000000000000100000000000000000000800000000000000000000000000000000000000000000000000000000000000000000000000000000000000000000000000040000000000000000000000000000000000000000000000000000000000000200000000000001000000000002000000000000000000000000000004000000000000000000000000000000000000000800000000000000000",
      "type": "0x2",
      "transactionHash": "0xd4b2e2a29f760b3d32f0d380b173d15ec12ca994babefe88a7fb7a90545244d5",
      "transactionIndex": "0x6",
      "blockHash": "0x9db7782d6369aacb6e2b812f396b8d9b81ae148f202b996ace77f8ac6ab770ab",
      "blockNumber": "0x4",
      "gasUsed": "0xbd0a",
      "effectiveGasPrice": "0x298c4a6a",
      "blobGasPrice": "0x1",
      "from": "0xf39fd6e51aad88f6f4ce6ab8827279cfffb92266",
      "to": "0xe7f1725e7734ce288f8367e1bb143e90bb3f0512",
      "contractAddress": null
    },
    {
      "status": "0x1",
      "cumulativeGasUsed": "0x1d5b15",
      "logs": [
        {
          "address": "0xe7f1725e7734ce288f8367e1bb143e90bb3f0512",
          "topics": [
            "0x2ae6a113c0ed5b78a53413ffbb7679881f11145ccfba4fb92e863dfcd5a1d2f3",
            "0xb09aa5aeb3702cfd50b6b62bc4532604938f21248a27a1d5ca736082b6819cc1",
            "0x000000000000000000000000f39fd6e51aad88f6f4ce6ab8827279cfffb92266"
          ],
          "data": "0x",
          "blockHash": "0x9db7782d6369aacb6e2b812f396b8d9b81ae148f202b996ace77f8ac6ab770ab",
          "blockNumber": "0x4",
          "blockTimestamp": "0x69e3fd03",
          "transactionHash": "0xb51966568d87e6d6cd98f502ad7c1ac0f46986db11118ad63cf3861f7617abf3",
          "transactionIndex": "0x7",
          "logIndex": "0x7",
          "removed": false
        }
      ],
      "logsBloom": "0x00000000000000000000000000000000020000000000000000000000000000000000000000000000000000000000000010000000000000000000000000200000000000000000000000400000000000000000000000000000000000000000000000000000000000000000000100000000000000000000800000000000000000000000000000000000000000000000000000000000000000000000000000000000000000000020000000000000000000000000000000000000000000000000000000000000000000200000000000001000000000002000000000000000000000000000004000000000000000000000000000000000000000800000000000000000",
      "type": "0x2",
      "transactionHash": "0xb51966568d87e6d6cd98f502ad7c1ac0f46986db11118ad63cf3861f7617abf3",
      "transactionIndex": "0x7",
      "blockHash": "0x9db7782d6369aacb6e2b812f396b8d9b81ae148f202b996ace77f8ac6ab770ab",
      "blockNumber": "0x4",
      "gasUsed": "0xbd0a",
      "effectiveGasPrice": "0x298c4a6a",
      "blobGasPrice": "0x1",
      "from": "0xf39fd6e51aad88f6f4ce6ab8827279cfffb92266",
      "to": "0xe7f1725e7734ce288f8367e1bb143e90bb3f0512",
      "contractAddress": null
    },
    {
      "status": "0x1",
      "cumulativeGasUsed": "0x1e1817",
      "logs": [
        {
          "address": "0x9fe46736679d2d9a65f0992f2272de9f3c7fa6e0",
          "topics": [
            "0x2ae6a113c0ed5b78a53413ffbb7679881f11145ccfba4fb92e863dfcd5a1d2f3",
            "0x68e79a7bf1e0bc45d0a330c573bc367f9cf464fd326078812f301165fbda4ef1",
            "0x000000000000000000000000f39fd6e51aad88f6f4ce6ab8827279cfffb92266"
          ],
          "data": "0x",
          "blockHash": "0x9db7782d6369aacb6e2b812f396b8d9b81ae148f202b996ace77f8ac6ab770ab",
          "blockNumber": "0x4",
          "blockTimestamp": "0x69e3fd03",
          "transactionHash": "0x109db24314e234aef236d93e238827cf911314d053afc6c5d542f96fa7ce90b8",
          "transactionIndex": "0x8",
          "logIndex": "0x8",
          "removed": false
        }
      ],
      "logsBloom": "0x00000000000000000000000000000000000000000000000000000000000000000000000000000000000000000000000000000000000040200000000000000000000000000000000000400000000000000040000000000000000000000000000000000000000000000000000100000000000000000000800000000000000000000000000000000000000000000000000000000000000000000000000002000000000000000000000000000000000000000000000000000000000000000000000000000000000000200000000000000000000000002000000000000000000000000000004000000000000000000000400000000000000000400000000000000000",
      "type": "0x2",
      "transactionHash": "0x109db24314e234aef236d93e238827cf911314d053afc6c5d542f96fa7ce90b8",
      "transactionIndex": "0x8",
      "blockHash": "0x9db7782d6369aacb6e2b812f396b8d9b81ae148f202b996ace77f8ac6ab770ab",
      "blockNumber": "0x4",
      "gasUsed": "0xbd02",
      "effectiveGasPrice": "0x298c4a6a",
      "blobGasPrice": "0x1",
      "from": "0xf39fd6e51aad88f6f4ce6ab8827279cfffb92266",
      "to": "0x9fe46736679d2d9a65f0992f2272de9f3c7fa6e0",
      "contractAddress": null
    },
    {
      "status": "0x1",
      "cumulativeGasUsed": "0x1ed53f",
      "logs": [
        {
          "address": "0xcf7ed3acca5a467e9e704c703e8d87f634fb0fc9",
          "topics": [
            "0x2ae6a113c0ed5b78a53413ffbb7679881f11145ccfba4fb92e863dfcd5a1d2f3",
            "0x2561bf26f818282a3be40719542054d2173eb0d38539e8a8d3cff22f29fd2384",
            "0x000000000000000000000000f39fd6e51aad88f6f4ce6ab8827279cfffb92266"
          ],
          "data": "0x",
          "blockHash": "0x9db7782d6369aacb6e2b812f396b8d9b81ae148f202b996ace77f8ac6ab770ab",
          "blockNumber": "0x4",
          "blockTimestamp": "0x69e3fd03",
          "transactionHash": "0xfe9afe8eaf8da30ff76ab418f94d37355b97b4d6d81ae28113034fa0046f2dee",
          "transactionIndex": "0x9",
          "logIndex": "0x9",
          "removed": false
        }
      ],
      "logsBloom": "0x00000000000000000000000000000000000000000000000000000000000000000000000000000000000000020000080000000000020000000000000000000001000000000000000000400000000000000000000000000000000000000000000000000000000000000000000100000000000000000000800000000000000000000000000008000000000000000000000000000000000000000000000000000000000000000000000000000000000000000000000000000000000000000000000000000000000000200000000000000000000000002000000000000000000000000000004000000000000000000000000000000000000000000000008000000000",
      "type": "0x2",
      "transactionHash": "0xfe9afe8eaf8da30ff76ab418f94d37355b97b4d6d81ae28113034fa0046f2dee",
      "transactionIndex": "0x9",
      "blockHash": "0x9db7782d6369aacb6e2b812f396b8d9b81ae148f202b996ace77f8ac6ab770ab",
      "blockNumber": "0x4",
      "gasUsed": "0xbd28",
      "effectiveGasPrice": "0x298c4a6a",
      "blobGasPrice": "0x1",
      "from": "0xf39fd6e51aad88f6f4ce6ab8827279cfffb92266",
      "to": "0xcf7ed3acca5a467e9e704c703e8d87f634fb0fc9",
      "contractAddress": null
    },
    {
      "status": "0x1",
      "cumulativeGasUsed": "0x1f9267",
      "logs": [
        {
          "address": "0xcf7ed3acca5a467e9e704c703e8d87f634fb0fc9",
          "topics": [
            "0x2ae6a113c0ed5b78a53413ffbb7679881f11145ccfba4fb92e863dfcd5a1d2f3",
            "0x5612063648f807201ec1c6d4f999a34ed02c6a8b521b7b99e155a6823c568736",
            "0x0000000000000000000000005fc8d32690cc91d4c39d9d3abcbd16989f875707"
          ],
          "data": "0x",
          "blockHash": "0x9db7782d6369aacb6e2b812f396b8d9b81ae148f202b996ace77f8ac6ab770ab",
          "blockNumber": "0x4",
          "blockTimestamp": "0x69e3fd03",
          "transactionHash": "0xfe2914982bf7567fe0b138e2525a81336f42653dc1ab2068ffe77ce041e56bf9",
          "transactionIndex": "0xa",
          "logIndex": "0xa",
          "removed": false
        }
      ],
      "logsBloom": "0x00000000000000000000000000000000000000000000000000000000000000000000000000000000000000000000080040000000000000000000000000000001000000000000000000400000000000000000000000000001000000000000000000000100000000000000000000000000000000000000800000000000000000000000000008000000000000000000000000000000000000000000000000000000100200000000000000000000000000000000000000000000000000000000000000000000000000000000000000000000000000000000001000000000000000000000004000000000000000000000000000000000000000000000000000000000",
      "type": "0x2",
      "transactionHash": "0xfe2914982bf7567fe0b138e2525a81336f42653dc1ab2068ffe77ce041e56bf9",
      "transactionIndex": "0xa",
      "blockHash": "0x9db7782d6369aacb6e2b812f396b8d9b81ae148f202b996ace77f8ac6ab770ab",
      "blockNumber": "0x4",
      "gasUsed": "0xbd28",
      "effectiveGasPrice": "0x298c4a6a",
      "blobGasPrice": "0x1",
      "from": "0xf39fd6e51aad88f6f4ce6ab8827279cfffb92266",
      "to": "0xcf7ed3acca5a467e9e704c703e8d87f634fb0fc9",
      "contractAddress": null
    },
    {
      "status": "0x1",
      "cumulativeGasUsed": "0x204f8f",
      "logs": [
        {
          "address": "0xcf7ed3acca5a467e9e704c703e8d87f634fb0fc9",
          "topics": [
            "0x2ae6a113c0ed5b78a53413ffbb7679881f11145ccfba4fb92e863dfcd5a1d2f3",
            "0x75c54964a01877e6799d0bf9bb81bacccabdf428c61a51fb4b1945e5db894095",
            "0x000000000000000000000000f39fd6e51aad88f6f4ce6ab8827279cfffb92266"
          ],
          "data": "0x",
          "blockHash": "0x9db7782d6369aacb6e2b812f396b8d9b81ae148f202b996ace77f8ac6ab770ab",
          "blockNumber": "0x4",
          "blockTimestamp": "0x69e3fd03",
          "transactionHash": "0xb2191dde454656e9dc7d768cfcd9ec753ea6f63367d35665504f4e2162fbe9f2",
          "transactionIndex": "0xb",
          "logIndex": "0xb",
          "removed": false
        }
      ],
      "logsBloom": "0x00000000000000000000000000000000000000000000000000000000000000000000000400000000000000000000080000000000000000000000000000000001000000000000000000400000000000000000000000000000000000000000000000000000000000000000000100010000000000000000800000000000000000000000000008000000000000000000000000000000000000000000000000000000000040000000000000000000000000000000000000000000000000000000000000000000000000200000000000000000000000002000000000000000000000000000004000000000000000000000000000000000000000000000000000000000",
      "type": "0x2",
      "transactionHash": "0xb2191dde454656e9dc7d768cfcd9ec753ea6f63367d35665504f4e2162fbe9f2",
      "transactionIndex": "0xb",
      "blockHash": "0x9db7782d6369aacb6e2b812f396b8d9b81ae148f202b996ace77f8ac6ab770ab",
      "blockNumber": "0x4",
      "gasUsed": "0xbd28",
      "effectiveGasPrice": "0x298c4a6a",
      "blobGasPrice": "0x1",
      "from": "0xf39fd6e51aad88f6f4ce6ab8827279cfffb92266",
      "to": "0xcf7ed3acca5a467e9e704c703e8d87f634fb0fc9",
      "contractAddress": null
    },
    {
      "status": "0x1",
      "cumulativeGasUsed": "0x210c8b",
      "logs": [
        {
          "address": "0xdc64a140aa3e981100a9beca4e685f962f0cf6c9",
          "topics": [
            "0x2ae6a113c0ed5b78a53413ffbb7679881f11145ccfba4fb92e863dfcd5a1d2f3",
            "0x11443b23617db34b01244d11705d34607a299c5a51f7a0bcb6a86e98bf8e1da9",
            "0x0000000000000000000000005fc8d32690cc91d4c39d9d3abcbd16989f875707"
          ],
          "data": "0x",
          "blockHash": "0x9db7782d6369aacb6e2b812f396b8d9b81ae148f202b996ace77f8ac6ab770ab",
          "blockNumber": "0x4",
          "blockTimestamp": "0x69e3fd03",
          "transactionHash": "0xa7ba5aec45e92d92a496b04a6beea96f720651178ea37107ff0ac1ddb359d501",
          "transactionIndex": "0xc",
          "logIndex": "0xc",
          "removed": false
        }
      ],
      "logsBloom": "0x00000000000000000000000000000000000000000004000000000000000000000000000000000000000000000000000040000000000000000000000000000000000000000000000000400000000000000000000000000000000000000000000000000000002000000000000000000000000000000000800000000000000000000000000000000000000000000000000000000000000000000000000000000000100000000000000000000000000000000000000000000000000000000000000000000000000000000000000000000000000000000060001000000000000000000000004000000000000000000000000000000001000000000100000000000000",
      "type": "0x2",
      "transactionHash": "0xa7ba5aec45e92d92a496b04a6beea96f720651178ea37107ff0ac1ddb359d501",
      "transactionIndex": "0xc",
      "blockHash": "0x9db7782d6369aacb6e2b812f396b8d9b81ae148f202b996ace77f8ac6ab770ab",
      "blockNumber": "0x4",
      "gasUsed": "0xbcfc",
      "effectiveGasPrice": "0x298c4a6a",
      "blobGasPrice": "0x1",
      "from": "0xf39fd6e51aad88f6f4ce6ab8827279cfffb92266",
      "to": "0xdc64a140aa3e981100a9beca4e685f962f0cf6c9",
      "contractAddress": null
    },
    {
      "status": "0x1",
      "cumulativeGasUsed": "0x21c987",
      "logs": [
        {
          "address": "0xdc64a140aa3e981100a9beca4e685f962f0cf6c9",
          "topics": [
            "0x2ae6a113c0ed5b78a53413ffbb7679881f11145ccfba4fb92e863dfcd5a1d2f3",
            "0x0914bb97ca83e85ef385857d9d418f187ff630589e0c9f44db92976d8e4519cb",
            "0x0000000000000000000000005fc8d32690cc91d4c39d9d3abcbd16989f875707"
          ],
          "data": "0x",
          "blockHash": "0x9db7782d6369aacb6e2b812f396b8d9b81ae148f202b996ace77f8ac6ab770ab",
          "blockNumber": "0x4",
          "blockTimestamp": "0x69e3fd03",
          "transactionHash": "0xb67d2ff3a87e184fe024ff4c52fc86f3872ca465b54d1b564e961ea6ad06c809",
          "transactionIndex": "0xd",
          "logIndex": "0xd",
          "removed": false
        }
      ],
      "logsBloom": "0x00000000000000000000000000000000000000000000000000000000000000000000000000000000000000000000000040000000000000000000000000000000000000000000000000400000000000000000000000000000000000000000000000000000000000000000000000000000000000000000800000000000000000000000000000000000000000000000000000000000000000000000000000000000100000000200000000000000000000000000000000000000000000000000000000000000000000000000000000000000000000000020001000000000000000000080004000000000000000000000000000000005000000000100000000000000",
      "type": "0x2",
      "transactionHash": "0xb67d2ff3a87e184fe024ff4c52fc86f3872ca465b54d1b564e961ea6ad06c809",
      "transactionIndex": "0xd",
      "blockHash": "0x9db7782d6369aacb6e2b812f396b8d9b81ae148f202b996ace77f8ac6ab770ab",
      "blockNumber": "0x4",
      "gasUsed": "0xbcfc",
      "effectiveGasPrice": "0x298c4a6a",
      "blobGasPrice": "0x1",
      "from": "0xf39fd6e51aad88f6f4ce6ab8827279cfffb92266",
      "to": "0xdc64a140aa3e981100a9beca4e685f962f0cf6c9",
      "contractAddress": null
    },
    {
      "status": "0x1",
      "cumulativeGasUsed": "0x228683",
      "logs": [
        {
          "address": "0x5fc8d32690cc91d4c39d9d3abcbd16989f875707",
          "topics": [
            "0x2ae6a113c0ed5b78a53413ffbb7679881f11145ccfba4fb92e863dfcd5a1d2f3",
            "0x97667070c54ef182b0f5858b034beac1b6f3089aa2d3188bb1e8929f4fa9b929",
            "0x000000000000000000000000f39fd6e51aad88f6f4ce6ab8827279cfffb92266"
          ],
          "data": "0x",
          "blockHash": "0x9db7782d6369aacb6e2b812f396b8d9b81ae148f202b996ace77f8ac6ab770ab",
          "blockNumber": "0x4",
          "blockTimestamp": "0x69e3fd03",
          "transactionHash": "0x0afaa8fcfc869948bb46c982ed64354bd3a5955c3d3b86f4f452c1d315c562fc",
          "transactionIndex": "0xe",
          "logIndex": "0xe",
          "removed": false
        }
      ],
      "logsBloom": "0x00000000000000000000000000000000000000000000000000000000000000000200000000000000000000000000000000000000000000000000000000000000000000000000000000400000000000000002000240000000000000000000000000000000000000000000000100000000000000000000800000000000000000000000000000000000000000000000000000000000000000000000000000000000000000000000000000000000000000000000000000008000000000000000000000000000000000200000000000000000000000002000000000000001000000000000004000000000000000000000000000000000000000000000000000000000",
      "type": "0x2",
      "transactionHash": "0x0afaa8fcfc869948bb46c982ed64354bd3a5955c3d3b86f4f452c1d315c562fc",
      "transactionIndex": "0xe",
      "blockHash": "0x9db7782d6369aacb6e2b812f396b8d9b81ae148f202b996ace77f8ac6ab770ab",
      "blockNumber": "0x4",
      "gasUsed": "0xbcfc",
      "effectiveGasPrice": "0x298c4a6a",
      "blobGasPrice": "0x1",
      "from": "0xf39fd6e51aad88f6f4ce6ab8827279cfffb92266",
      "to": "0x5fc8d32690cc91d4c39d9d3abcbd16989f875707",
      "contractAddress": null
    },
    {
      "status": "0x1",
      "cumulativeGasUsed": "0x23437f",
      "logs": [
        {
          "address": "0x0165878a594ca255338adfa4d48449f69242eb8f",
          "topics": [
            "0x2ae6a113c0ed5b78a53413ffbb7679881f11145ccfba4fb92e863dfcd5a1d2f3",
            "0x3204c940063673962b481a0395619b3dbbd137589c419e993978c1c71bcf68ec",
            "0x000000000000000000000000f39fd6e51aad88f6f4ce6ab8827279cfffb92266"
          ],
          "data": "0x",
          "blockHash": "0x9db7782d6369aacb6e2b812f396b8d9b81ae148f202b996ace77f8ac6ab770ab",
          "blockNumber": "0x4",
          "blockTimestamp": "0x69e3fd03",
          "transactionHash": "0x160f4f17d1dac80f72107f486e5a489b57b5247c6206f5bc733a8bd8fe04f51d",
          "transactionIndex": "0xf",
          "logIndex": "0xf",
          "removed": false
        }
      ],
      "logsBloom": "0x00000000000000000000000000000000000000000000000000000000000000000000000000000000000000000000000000000000000000000000000000000000001000000000000000400000000000000000000000000000000000000000000000000000000000000000000100000000000000000004800000000000000000040000000000000000000000000000000000000000000000000000000000000000400000000000000000000000000000004000000000000000000000000000000000000004000000200000000000000000000000002000000000000000000000000000004000000000000000000000000000000000000000000000000000000000",
      "type": "0x2",
      "transactionHash": "0x160f4f17d1dac80f72107f486e5a489b57b5247c6206f5bc733a8bd8fe04f51d",
      "transactionIndex": "0xf",
      "blockHash": "0x9db7782d6369aacb6e2b812f396b8d9b81ae148f202b996ace77f8ac6ab770ab",
      "blockNumber": "0x4",
      "gasUsed": "0xbcfc",
      "effectiveGasPrice": "0x298c4a6a",
      "blobGasPrice": "0x1",
      "from": "0xf39fd6e51aad88f6f4ce6ab8827279cfffb92266",
      "to": "0x0165878a594ca255338adfa4d48449f69242eb8f",
      "contractAddress": null
    },
    {
      "status": "0x1",
      "cumulativeGasUsed": "0x240097",
      "logs": [
        {
          "address": "0xa513e6e4b8f2a923d98304ec87f64353c4d5c853",
          "topics": [
            "0x2ae6a113c0ed5b78a53413ffbb7679881f11145ccfba4fb92e863dfcd5a1d2f3",
            "0x55435dd261a4b9b3364963f7738a7a662ad9c84396d64be3365284bb7f0a5041",
            "0x000000000000000000000000f39fd6e51aad88f6f4ce6ab8827279cfffb92266"
          ],
          "data": "0x",
          "blockHash": "0x9db7782d6369aacb6e2b812f396b8d9b81ae148f202b996ace77f8ac6ab770ab",
          "blockNumber": "0x4",
          "blockTimestamp": "0x69e3fd03",
          "transactionHash": "0x967ea36cd0da7685cd3201e357b86e38b1f399739c23ef42595b9452c6cd35c4",
          "transactionIndex": "0x10",
          "logIndex": "0x10",
          "removed": false
        }
      ],
      "logsBloom": "0x00000000000000000000000000000000000000000000000000000000000000010000000000000000000000000000000000000000000000000000000000000000000000000000000000400000000000000000000010000000010000000000000000000000000000000000000100000000000000000000800000000000000000000000000000000000000000000000000000000000000000000000000000004000000000000000000000000000000000000000000000000000000000000000000000000000020000200000000000000000000000002000000000000000000000000000004000000000000000000000000000000000000000000000000000040000",
      "type": "0x2",
      "transactionHash": "0x967ea36cd0da7685cd3201e357b86e38b1f399739c23ef42595b9452c6cd35c4",
      "transactionIndex": "0x10",
      "blockHash": "0x9db7782d6369aacb6e2b812f396b8d9b81ae148f202b996ace77f8ac6ab770ab",
      "blockNumber": "0x4",
      "gasUsed": "0xbd18",
      "effectiveGasPrice": "0x298c4a6a",
      "blobGasPrice": "0x1",
      "from": "0xf39fd6e51aad88f6f4ce6ab8827279cfffb92266",
      "to": "0xa513e6e4b8f2a923d98304ec87f64353c4d5c853",
      "contractAddress": null
    },
    {
      "status": "0x1",
      "cumulativeGasUsed": "0x24bdaf",
      "logs": [
        {
          "address": "0xa513e6e4b8f2a923d98304ec87f64353c4d5c853",
          "topics": [
            "0x2ae6a113c0ed5b78a53413ffbb7679881f11145ccfba4fb92e863dfcd5a1d2f3",
            "0x8f4f2da22e8ac8f11e15f9fc141cddbb5deea8800186560abb6e68c5496619a9",
            "0x000000000000000000000000f39fd6e51aad88f6f4ce6ab8827279cfffb92266"
          ],
          "data": "0x",
          "blockHash": "0x9db7782d6369aacb6e2b812f396b8d9b81ae148f202b996ace77f8ac6ab770ab",
          "blockNumber": "0x4",
          "blockTimestamp": "0x69e3fd03",
          "transactionHash": "0x9bd29ad63e0c5c3bf3c0acd84a31aa3815d33b49a623d993c4dd1cefb1e9fb22",
          "transactionIndex": "0x11",
          "logIndex": "0x11",
          "removed": false
        }
      ],
      "logsBloom": "0x00000000000000000000000000000000000000000001000000000000000000050000000000000000000000000000000000000000000000000000000000000000000000000000000000400000000000000000000010000000010000000000000000000000000000000000000100000000000000000000800000000000000000000000000000000000000000000000000010000000000000000000000000000000000000000000000000000000000000000000000000000000000000000000000000000000000000200000000000000000000000002000000000000000000000000000004000000000000000000000000000000000000000000000000000000000",
      "type": "0x2",
      "transactionHash": "0x9bd29ad63e0c5c3bf3c0acd84a31aa3815d33b49a623d993c4dd1cefb1e9fb22",
      "transactionIndex": "0x11",
      "blockHash": "0x9db7782d6369aacb6e2b812f396b8d9b81ae148f202b996ace77f8ac6ab770ab",
      "blockNumber": "0x4",
      "gasUsed": "0xbd18",
      "effectiveGasPrice": "0x298c4a6a",
      "blobGasPrice": "0x1",
      "from": "0xf39fd6e51aad88f6f4ce6ab8827279cfffb92266",
      "to": "0xa513e6e4b8f2a923d98304ec87f64353c4d5c853",
      "contractAddress": null
    }
  ],
  "libraries": [],
  "pending": [],
  "returns": {},
  "timestamp": 1776549123198,
  "chain": 31337,
  "commit": "202a169"
}