{
  "transactions": [
    {
      "hash": "0xd062af60f4d5cd8351410628787eef5c85427a3d586fbbc6c124c9053900dd23",
      "transactionType": "CALL",
      "contractName": null,
      "contractAddress": "0x5fbdb2315678afecb367f032d93f642f64180aa3",
      "function": "registerMember(address,uint16)",
      "arguments": [
        "0x00000000000000000000000000000000000A11cE",
        "1960"
      ],
      "transaction": {
        "from": "0xf39fd6e51aad88f6f4ce6ab8827279cfffb92266",
        "to": "0x5fbdb2315678afecb367f032d93f642f64180aa3",
        "gas": "0x286ee",
        "value": "0x0",
        "input": "0xaca6b44d00000000000000000000000000000000000000000000000000000000000a11ce00000000000000000000000000000000000000000000000000000000000007a8",
        "nonce": "0x17",
        "chainId": "0x7a69"
      },
      "additionalContracts": [],
      "isFixedGasLimit": false
    },
    {
      "hash": "0xb53cb20aad0f33e980b1fe697484cdd819a7675b44a453af8888c56a5f258bcf",
      "transactionType": "CALL",
      "contractName": null,
      "contractAddress": "0x5fbdb2315678afecb367f032d93f642f64180aa3",
      "function": "registerMember(address,uint16)",
      "arguments": [
        "0x0000000000000000000000000000000000000B0b",
        "1995"
      ],
      "transaction": {
        "from": "0xf39fd6e51aad88f6f4ce6ab8827279cfffb92266",
        "to": "0x5fbdb2315678afecb367f032d93f642f64180aa3",
        "gas": "0x22a9b",
        "value": "0x0",
        "input": "0xaca6b44d0000000000000000000000000000000000000000000000000000000000000b0b00000000000000000000000000000000000000000000000000000000000007cb",
        "nonce": "0x18",
        "chainId": "0x7a69"
      },
      "additionalContracts": [],
      "isFixedGasLimit": false
    },
    {
      "hash": "0xa63777fd486d1a340fd51d0161e2042c4aeca6aeb1aaabfb7b4740e9174d0ee5",
      "transactionType": "CALL",
      "contractName": null,
      "contractAddress": "0x5fbdb2315678afecb367f032d93f642f64180aa3",
      "function": "contribute(address,uint256)",
      "arguments": [
        "0x00000000000000000000000000000000000A11cE",
        "100000000000000000000"
      ],
      "transaction": {
        "from": "0xf39fd6e51aad88f6f4ce6ab8827279cfffb92266",
        "to": "0x5fbdb2315678afecb367f032d93f642f64180aa3",
        "gas": "0x20ac7",
        "value": "0x0",
        "input": "0x8418cd9900000000000000000000000000000000000000000000000000000000000a11ce0000000000000000000000000000000000000000000000056bc75e2d63100000",
        "nonce": "0x19",
        "chainId": "0x7a69"
      },
      "additionalContracts": [],
      "isFixedGasLimit": false
    },
    {
      "hash": "0xdaf7d9c8b5dd6c00defb78e90cf2423b01dd24bd143e7b1729b8ce91c3951f35",
      "transactionType": "CALL",
      "contractName": null,
      "contractAddress": "0x5fbdb2315678afecb367f032d93f642f64180aa3",
      "function": "contribute(address,uint256)",
      "arguments": [
        "0x0000000000000000000000000000000000000B0b",
        "20000000000000000000"
      ],
      "transaction": {
        "from": "0xf39fd6e51aad88f6f4ce6ab8827279cfffb92266",
        "to": "0x5fbdb2315678afecb367f032d93f642f64180aa3",
        "gas": "0x20ab7",
        "value": "0x0",
        "input": "0x8418cd990000000000000000000000000000000000000000000000000000000000000b0b000000000000000000000000000000000000000000000001158e460913d00000",
        "nonce": "0x1a",
        "chainId": "0x7a69"
      },
      "additionalContracts": [],
      "isFixedGasLimit": false
    },
    {
      "hash": "0x51871c49ca30e8e84affc193eaeca9acfc554942592fdca675054ff0e4c14c99",
      "transactionType": "CALL",
      "contractName": null,
      "contractAddress": "0xe7f1725e7734ce288f8367e1bb143e90bb3f0512",
      "function": "setBaseline(uint16[],int256[])",
      "arguments": [
        "[1960, 1995]",
        "[100000000000000000000, 100000000000000000000]"
      ],
      "transaction": {
        "from": "0xf39fd6e51aad88f6f4ce6ab8827279cfffb92266",
        "to": "0xe7f1725e7734ce288f8367e1bb143e90bb3f0512",
        "gas": "0x2a994",
        "value": "0x0",
        "input": "0x28c1e2b8000000000000000000000000000000000000000000000000000000000000004000000000000000000000000000000000000000000000000000000000000000a0000000000000000000000000000000000000000000000000000000000000000200000000000000000000000000000000000000000000000000000000000007a800000000000000000000000000000000000000000000000000000000000007cb00000000000000000000000000000000000000000000000000000000000000020000000000000000000000000000000000000000000000056bc75e2d631000000000000000000000000000000000000000000000000000056bc75e2d63100000",
        "nonce": "0x1b",
        "chainId": "0x7a69"
      },
      "additionalContracts": [],
      "isFixedGasLimit": false
    },
    {
      "hash": "0xe81b34642359240f7418e72a84c05a658a1f9dd3754d094c8eec5b11e7c3f516",
      "transactionType": "CALL",
      "contractName": null,
      "contractAddress": "0xe7f1725e7734ce288f8367e1bb143e90bb3f0512",
      "function": "submitAndEvaluate(string,uint16[],int256[],uint256)",
      "arguments": [
        "balanced +1%",
        "[1960, 1995]",
        "[101000000000000000000, 101000000000000000000]",
        "50000000000000000"
      ],
      "transaction": {
        "from": "0xf39fd6e51aad88f6f4ce6ab8827279cfffb92266",
        "to": "0xe7f1725e7734ce288f8367e1bb143e90bb3f0512",
        "gas": "0x5a0b7",
        "value": "0x0",
        "input": "0x97e4df17000000000000000000000000000000000000000000000000000000000000008000000000000000000000000000000000000000000000000000000000000000c0000000000000000000000000000000000000000000000000000000000000012000000000000000000000000000000000000000000000000000b1a2bc2ec50000000000000000000000000000000000000000000000000000000000000000000c62616c616e636564202b31250000000000000000000000000000000000000000000000000000000000000000000000000000000000000000000000000000000200000000000000000000000000000000000000000000000000000000000007a800000000000000000000000000000000000000000000000000000000000007cb000000000000000000000000000000000000000000000000000000000000000200000000000000000000000000000000000000000000000579a814e10a74000000000000000000000000000000000000000000000000000579a814e10a740000",
        "nonce": "0x1c",
        "chainId": "0x7a69"
      },
      "additionalContracts": [],
      "isFixedGasLimit": false
    },
    {
      "hash": "0x5397b549ba86d303f87b53535f4922e2d105c2f6417f793830b84d688fce6227",
      "transactionType": "CALL",
      "contractName": null,
      "contractAddress": "0xcf7ed3acca5a467e9e704c703e8d87f634fb0fc9",
      "function": "deposit(address,uint256)",
      "arguments": [
        "0x00000000000000000000000000000000000A11cE",
        "30000000000000000000"
      ],
      "transaction": {
        "from": "0xf39fd6e51aad88f6f4ce6ab8827279cfffb92266",
        "to": "0xcf7ed3acca5a467e9e704c703e8d87f634fb0fc9",
        "gas": "0x2109e",
        "value": "0x1a055690d9db80000",
        "input": "0x47e7ef2400000000000000000000000000000000000000000000000000000000000a11ce000000000000000000000000000000000000000000000001a055690d9db80000",
        "nonce": "0x1d",
        "chainId": "0x7a69"
      },
      "additionalContracts": [],
      "isFixedGasLimit": false
    },
    {
      "hash": "0x9141f85ee4bbd00ad6ce740dc6aac43f2285090645c35f2b66b44ae1a438c1d6",
      "transactionType": "CALL",
      "contractName": null,
      "contractAddress": "0x5fbdb2315678afecb367f032d93f642f64180aa3",
      "function": "markRetired(address)",
      "arguments": [
        "0x00000000000000000000000000000000000A11cE"
      ],
      "transaction": {
        "from": "0xf39fd6e51aad88f6f4ce6ab8827279cfffb92266",
        "to": "0x5fbdb2315678afecb367f032d93f642f64180aa3",
        "gas": "0xacda",
        "value": "0x0",
        "input": "0x98d9115f00000000000000000000000000000000000000000000000000000000000a11ce",
        "nonce": "0x1e",
        "chainId": "0x7a69"
      },
      "additionalContracts": [],
      "isFixedGasLimit": false
    },
    {
      "hash": "0xb006b099fcbdd2fb92bb590ceffa2daa1893a2d9cbf9106482481bb1634029e8",
      "transactionType": "CALL",
      "contractName": null,
      "contractAddress": "0x5fc8d32690cc91d4c39d9d3abcbd16989f875707",
      "function": "openRetirement(address,uint256,uint128,uint64)",
      "arguments": [
        "0x00000000000000000000000000000000000A11cE",
        "10000000000000000000",
        "12000000000000000000",
        "0"
      ],
      "transaction": {
        "from": "0xf39fd6e51aad88f6f4ce6ab8827279cfffb92266",
        "to": "0x5fc8d32690cc91d4c39d9d3abcbd16989f875707",
        "gas": "0x309f9",
        "value": "0x0",
        "input": "0xff23635900000000000000000000000000000000000000000000000000000000000a11ce0000000000000000000000000000000000000000000000008ac7230489e80000000000000000000000000000000000000000000000000000a688906bd8b000000000000000000000000000000000000000000000000000000000000000000000",
        "nonce": "0x1f",
        "chainId": "0x7a69"
      },
      "additionalContracts": [],
      "isFixedGasLimit": false
    },
    {
      "hash": "0xf72db600581c0304d1f0f2baf4a0085aa7e81f16fc585a4ef96d029a65f5d8a5",
      "transactionType": "CALL",
      "contractName": null,
      "contractAddress": "0xa513e6e4b8f2a923d98304ec87f64353c4d5c853",
      "function": "deposit()",
      "arguments": [],
      "transaction": {
        "from": "0xf39fd6e51aad88f6f4ce6ab8827279cfffb92266",
        "to": "0xa513e6e4b8f2a923d98304ec87f64353c4d5c853",
        "gas": "0x10e65",
        "value": "0x4563918244f40000",
        "input": "0xd0e30db0",
        "nonce": "0x20",
        "chainId": "0x7a69"
      },
      "additionalContracts": [],
      "isFixedGasLimit": false
    },
    {
      "hash": "0xcf489a2e272a06a6792c9d833ccac5c50444b475bd10f6747875e281da50269d",
      "transactionType": "CALL",
      "contractName": null,
      "contractAddress": "0x0165878a594ca255338adfa4d48449f69242eb8f",
      "function": "updateStressLevel(uint256,bytes32,bytes32)",
      "arguments": [
        "820000000000000000",
        "0x7039355f67696e693e7468726573686f6c640000000000000000000000000000",
        "0x0000000000000000000000000000000000000000000000000000000000000000"
      ],
      "transaction": {
        "from": "0xf39fd6e51aad88f6f4ce6ab8827279cfffb92266",
        "to": "0x0165878a594ca255338adfa4d48449f69242eb8f",
        "gas": "0x1fd75",
        "value": "0x0",
        "input": "0x6f21353d0000000000000000000000000000000000000000000000000b6139a7cbd200007039355f67696e693e7468726573686f6c6400000000000000000000000000000000000000000000000000000000000000000000000000000000000000000000",
        "nonce": "0x21",
        "chainId": "0x7a69"
      },
      "additionalContracts": [],
      "isFixedGasLimit": false
    },
    {
      "hash": "0x1961ead5bab367e3cae5e7f2b592687269c235299a66ece5c3919ab07da10075",
      "transactionType": "CALL",
      "contractName": null,
      "contractAddress": "0xa513e6e4b8f2a923d98304ec87f64353c4d5c853",
      "function": "release(uint256)",
      "arguments": [
        "500000000000000000"
      ],
      "transaction": {
        "from": "0xf39fd6e51aad88f6f4ce6ab8827279cfffb92266",
        "to": "0xa513e6e4b8f2a923d98304ec87f64353c4d5c853",
        "gas": "0x1a4e9",
        "value": "0x0",
        "input": "0x37bdc99b00000000000000000000000000000000000000000000000006f05b59d3b20000",
        "nonce": "0x22",
        "chainId": "0x7a69"
      },
      "additionalContracts": [],
      "isFixedGasLimit": false
    },
    {
      "hash": "0xa4b15b06e7e8dfe98341db747ea29f9b724e90de3a460a902dcfaa9c00f1a188",
      "transactionType": "CALL",
      "contractName": null,
      "contractAddress": "0x9fe46736679d2d9a65f0992f2272de9f3c7fa6e0",
      "function": "confirmDeath(address,uint64,bytes32)",
      "arguments": [
        "0x0000000000000000000000000000000000000B0b",
        "1776549123",
        "0x636572742d626f62000000000000000000000000000000000000000000000000"
      ],
      "transaction": {
        "from": "0xf39fd6e51aad88f6f4ce6ab8827279cfffb92266",
        "to": "0x9fe46736679d2d9a65f0992f2272de9f3c7fa6e0",
        "gas": "0x19390",
        "value": "0x0",
        "input": "0xa156b8310000000000000000000000000000000000000000000000000000000000000b0b0000000000000000000000000000000000000000000000000000000069e3fd03636572742d626f62000000000000000000000000000000000000000000000000",
        "nonce": "0x23",
        "chainId": "0x7a69"
      },
      "additionalContracts": [],
      "isFixedGasLimit": false
    }
  ],
  "receipts": [
    {
      "status": "0x1",
      "cumulativeGasUsed": "0x1d45f",
      "logs": [
        {
          "address": "0x5fbdb2315678afecb367f032d93f642f64180aa3",
          "topics": [
            "0xcea9d13b3614a13580f851ed5be73bd63aceb3de260a66bf2e61396bafb45213",
            "0x00000000000000000000000000000000000000000000000000000000000a11ce"
          ],
          "data": "0x00000000000000000000000000000000000000000000000000000000000007a800000000000000000000000000000000000000000000000000000000000007a8",
          "blockHash": "0xa64b9d31e3c4fc0651b12a57e70677badff2a60cad8592c4d2bf91753d228633",
          "blockNumber": "0x6",
          "blockTimestamp": "0x69e3fd10",
          "transactionHash": "0xd062af60f4d5cd8351410628787eef5c85427a3d586fbbc6c124c9053900dd23",
          "transactionIndex": "0x0",
          "logIndex": "0x0",
          "removed": false
        }
      ],
      "logsBloom": "0x00000000000000000000000000000000000000000000000000000000000000000000000000000000000000000000000000000000000000000000000000000000000000000000000000000000000000000000000000000000000000000000000000000040000000000000000000000000000000000000000000000000000000000000000000000000000000000000000000000000000000000000000200000000000000000000000000000000000000000020000000008000000000004000000000000040000000000800000000000000000000000000000000200000000000000000000000000000000000000000000000000000000200000000000000000000",
      "type": "0x2",
      "transactionHash": "0xd062af60f4d5cd8351410628787eef5c85427a3d586fbbc6c124c9053900dd23",
      "transactionIndex": "0x0",
      "blockHash": "0xa64b9d31e3c4fc0651b12a57e70677badff2a60cad8592c4d2bf91753d228633",
      "blockNumber": "0x6",
      "gasUsed": "0x1d45f",
      "effectiveGasPrice": "0x208a2784",
      "blobGasPrice": "0x1",
      "from": "0xf39fd6e51aad88f6f4ce6ab8827279cfffb92266",
      "to": "0x5fbdb2315678afecb367f032d93f642f64180aa3",
      "contractAddress": null
    },
    {
      "status": "0x1",
      "cumulativeGasUsed": "0x19187",
      "logs": [
        {
          "address": "0x5fbdb2315678afecb367f032d93f642f64180aa3",
          "topics": [
            "0xcea9d13b3614a13580f851ed5be73bd63aceb3de260a66bf2e61396bafb45213",
            "0x0000000000000000000000000000000000000000000000000000000000000b0b"
          ],
          "data": "0x00000000000000000000000000000000000000000000000000000000000007cb00000000000000000000000000000000000000000000000000000000000007cb",
          "blockHash": "0xb6034839b1d7b94a5191b92ebf345c45811c286272f31ba9411f0152a1df40ff",
          "blockNumber": "0x7",
          "blockTimestamp": "0x69e3fd10",
          "transactionHash": "0xb53cb20aad0f33e980b1fe697484cdd819a7675b44a453af8888c56a5f258bcf",
          "transactionIndex": "0x0",
          "logIndex": "0x0",
          "removed": false
        }
      ],
      "logsBloom": "0x00000000000000000000000000000000000000000000000000000000000000000000000000000000000000000000000000000000000000000000000000200000000000000000000000000000000000000000000000000000000000000000000000000040000000000000000000000000000000000000000000000000000000000000000000000000000000000000000000000000000000000000000200000000000000000000000000000000000000000000000000000000000000000000000000010040000000000800000000000000000000000000000000200000000000004000000000000000000000000000000000000000000200000000000000000000",
      "type": "0x2",
      "transactionHash": "0xb53cb20aad0f33e980b1fe697484cdd819a7675b44a453af8888c56a5f258bcf",
      "transactionIndex": "0x0",
      "blockHash": "0xb6034839b1d7b94a5191b92ebf345c45811c286272f31ba9411f0152a1df40ff",
      "blockNumber": "0x7",
      "gasUsed": "0x19187",
      "effectiveGasPrice": "0x1c813560",
      "blobGasPrice": "0x1",
      "from": "0xf39fd6e51aad88f6f4ce6ab8827279cfffb92266",
      "to": "0x5fbdb2315678afecb367f032d93f642f64180aa3",
      "contractAddress": null
    },
    {
      "status": "0x1",
      "cumulativeGasUsed": "0x17a7c",
      "logs": [
        {
          "address": "0x5fbdb2315678afecb367f032d93f642f64180aa3",
          "topics": [
            "0x0196d0533f37ea47d88e4eb66396286ef3e57c7ebd89f644475d77f1e899cace",
            "0x00000000000000000000000000000000000000000000000000000000000a11ce"
          ],
          "data": "0x0000000000000000000000000000000000000000000000056bc75e2d631000000000000000000000000000000000000000000000000000056bc75e2d63100000",
          "blockHash": "0x279aeb4bb17d22bbfc2f20848327594d5a42d726d99f50a4150837522fc50755",
          "blockNumber": "0x8",
          "blockTimestamp": "0x69e3fd10",
          "transactionHash": "0xf72db600581c0304d1f0f2baf4a0085aa7e81f16fc585a4ef96d029a65f5d8a5",
          "transactionIndex": "0x0",
          "logIndex": "0x0",
          "removed": false
        }
      ],
      "logsBloom": "0x00000000000000000000000000000000000000000000000000000004000000000000000000000000000000000000000000000000000000000000000000000000000000000000000000000000000000000000000000000000000000000000000000000040000000000000000000000000000000000000000000400000000000000000000000000000000000000000000000000000000000000000000200000000000000000000000000000000000000010020000000008000000000004000000000000040000000000000000000000000000000000000000000000000000000000000000000000000000000000000000000000000000000000000000000000000",
      "type": "0x2",
      "transactionHash": "0xf72db600581c0304d1f0f2baf4a0085aa7e81f16fc585a4ef96d029a65f5d8a5",
      "transactionIndex": "0x0",
      "blockHash": "0x279aeb4bb17d22bbfc2f20848327594d5a42d726d99f50a4150837522fc50755",
      "blockNumber": "0x8",
      "gasUsed": "0x17a7c",
      "effectiveGasPrice": "0x18f74ee4",
      "blobGasPrice": "0x1",
      "from": "0xf39fd6e51aad88f6f4ce6ab8827279cfffb92266",
      "to": "0x5fbdb2315678afecb367f032d93f642f64180aa3",
      "contractAddress": null
    },
    {
      "status": "0x1",
      "cumulativeGasUsed": "0x2f4ec",
      "logs": [
        {
          "address": "0x5fbdb2315678afecb367f032d93f642f64180aa3",
          "topics": [
            "0x0196d0533f37ea47d88e4eb66396286ef3e57c7ebd89f644475d77f1e899cace",
            "0x0000000000000000000000000000000000000000000000000000000000000b0b"
          ],
          "data": "0x000000000000000000000000000000000000000000000001158e460913d00000000000000000000000000000000000000000000000000001158e460913d00000",
          "blockHash": "0x279aeb4bb17d22bbfc2f20848327594d5a42d726d99f50a4150837522fc50755",
          "blockNumber": "0x8",
          "blockTimestamp": "0x69e3fd10",
          "transactionHash": "0xa63777fd486d1a340fd51d0161e2042c4aeca6aeb1aaabfb7b4740e9174d0ee5",
          "transactionIndex": "0x1",
          "logIndex": "0x1",
          "removed": false
        }
      ],
      "logsBloom": "0x00000000000000000000000000000000000000000000000000000004000000000000000000000000000000000000000000000000000000000000000000200000000000000000000000000000000000000000000000000000000000000000000000000040000000000000000000000000000000000000000000400000000000000000000000000000000000000000000000000000000000000000000200000000000000000000000000000000000000010000000000000000000000000000000000010040000000000000000000000000000000000000000000000000000000004000000000000000000000000000000000000000000000000000000000000000",
      "type": "0x2",
      "transactionHash": "0xa63777fd486d1a340fd51d0161e2042c4aeca6aeb1aaabfb7b4740e9174d0ee5",
      "transactionIndex": "0x1",
      "blockHash": "0x279aeb4bb17d22bbfc2f20848327594d5a42d726d99f50a4150837522fc50755",
      "blockNumber": "0x8",
      "gasUsed": "0x17a70",
      "effectiveGasPrice": "0x18f74ee4",
      "blobGasPrice": "0x1",
      "from": "0xf39fd6e51aad88f6f4ce6ab8827279cfffb92266",
      "to": "0x5fbdb2315678afecb367f032d93f642f64180aa3",
      "contractAddress": null
    },
    {
      "status": "0x1",
      "cumulativeGasUsed": "0x4c6f6",
      "logs": [
        {
          "address": "0xe7f1725e7734ce288f8367e1bb143e90bb3f0512",
          "topics": [
            "0x5dde9c42c3a745a28224405474fef698bf00afc9d3d19803c10475f5f55c30a4"
          ],
          "data": "0x000000000000000000000000000000000000000000000000000000000000004000000000000000000000000000000000000000000000000000000000000000a0000000000000000000000000000000000000000000000000000000000000000200000000000000000000000000000000000000000000000000000000000007a800000000000000000000000000000000000000000000000000000000000007cb00000000000000000000000000000000000000000000000000000000000000020000000000000000000000000000000000000000000000056bc75e2d631000000000000000000000000000000000000000000000000000056bc75e2d63100000",
          "blockHash": "0x279aeb4bb17d22bbfc2f20848327594d5a42d726d99f50a4150837522fc50755",
          "blockNumber": "0x8",
          "blockTimestamp": "0x69e3fd10",
          "transactionHash": "0xcf489a2e272a06a6792c9d833ccac5c50444b475bd10f6747875e281da50269d",
          "transactionIndex": "0x2",
          "logIndex": "0x2",
          "removed": false
        }
      ],
      "logsBloom": "0x00000000000000000000000000000000000000000000000000000000000000010000000000000000000000000000000010000000000000000000000000000000000000000000000000000000000000000000000000000000000000000000000000000000000000000000000000000000000000000000000000000000000000000000000000000000000000000000000000000000000000000000000000000000000000000000804000000000000000000000000000000000000000000000000000000000000000000000000000001000000000000000000000000000000000000000000000000000000000000000000000000000000000800000000000000000",
      "type": "0x2",
      "transactionHash": "0xcf489a2e272a06a6792c9d833ccac5c50444b475bd10f6747875e281da50269d",
      "transactionIndex": "0x2",
      "blockHash": "0x279aeb4bb17d22bbfc2f20848327594d5a42d726d99f50a4150837522fc50755",
      "blockNumber": "0x8",
      "gasUsed": "0x1d20a",
      "effectiveGasPrice": "0x18f74ee4",
      "blobGasPrice": "0x1",
      "from": "0xf39fd6e51aad88f6f4ce6ab8827279cfffb92266",
      "to": "0xe7f1725e7734ce288f8367e1bb143e90bb3f0512",
      "contractAddress": null
    },
    {
      "status": "0x1",
      "cumulativeGasUsed": "0x3d91b",
      "logs": [
        {
          "address": "0xe7f1725e7734ce288f8367e1bb143e90bb3f0512",
          "topics": [
            "0xdc252f306703b21a06942a9125a974da8820ba330c08939ece178742bbc439a7",
            "0x0000000000000000000000000000000000000000000000000000000000000000",
            "0x000000000000000000000000f39fd6e51aad88f6f4ce6ab8827279cfffb92266"
          ],
          "data": "0x0000000000000000000000000000000000000000000000000000000000000020000000000000000000000000000000000000000000000000000000000000000c62616c616e636564202b31250000000000000000000000000000000000000000",
          "blockHash": "0x9f109816715218adbf6d259d8bf8eb062eeda07f80de6df2090730aeeff88313",
          "blockNumber": "0x9",
          "blockTimestamp": "0x69e3fd10",
          "transactionHash": "0xa4b15b06e7e8dfe98341db747ea29f9b724e90de3a460a902dcfaa9c00f1a188",
          "transactionIndex": "0x0",
          "logIndex": "0x0",
          "removed": false
        },
        {
          "address": "0xe7f1725e7734ce288f8367e1bb143e90bb3f0512",
          "topics": [
            "0xe45510d13ca49e02028e45a07142e1aff6b7db3fff3cf0470c444d86b03761a6",
            "0x0000000000000000000000000000000000000000000000000000000000000000"
          ],
          "data": "0x0000000000000000000000000000000000000000000000000000000000000001000000000000000000000000000000000000000000000000000000000000000000000000000000000000000000000000000000000000000000000000000000000000000000000000000000000000000000000000000000000000000000000000",
          "blockHash": "0x9f109816715218adbf6d259d8bf8eb062eeda07f80de6df2090730aeeff88313",
          "blockNumber": "0x9",
          "blockTimestamp": "0x69e3fd10",
          "transactionHash": "0xa4b15b06e7e8dfe98341db747ea29f9b724e90de3a460a902dcfaa9c00f1a188",
          "transactionIndex": "0x0",
          "logIndex": "0x1",
          "removed": false
        },
        {
          "address": "0xe7f1725e7734ce288f8367e1bb143e90bb3f0512",
          "topics": [
            "0xd24c2047577899547bacebb29e319fc7d73f6712b5adb401d45556f34bb2aa3b",
            "0x0000000000000000000000000000000000000000000000000000000000000000"
          ],
          "data": "0x",
          "blockHash": "0x9f109816715218adbf6d259d8bf8eb062eeda07f80de6df2090730aeeff88313",
          "blockNumber": "0x9",
          "blockTimestamp": "0x69e3fd10",
          "transactionHash": "0xa4b15b06e7e8dfe98341db747ea29f9b724e90de3a460a902dcfaa9c00f1a188",
          "transactionIndex": "0x0",
          "logIndex": "0x2",
          "removed": false
        }
      ],
      "logsBloom": "0x00000000000000000000000000000000000000000000000000000000000004000000000000000000000000000000000010000000000000000000000000000000000002000000000000000000000000000000000000000000080000000000000000000000020000000000000100000800000000000000000000000000000000200000000400000000000000200000000000000000000000000000000000000000001000000000000000000000000000000000000000000000000000000000000000000000000000200000000000001000000000002000000000100000000020000000000000000000000000000000000000800000000000800000000000000000",
      "type": "0x2",
      "transactionHash": "0xa4b15b06e7e8dfe98341db747ea29f9b724e90de3a460a902dcfaa9c00f1a188",
      "transactionIndex": "0x0",
      "blockHash": "0x9f109816715218adbf6d259d8bf8eb062eeda07f80de6df2090730aeeff88313",
      "blockNumber": "0x9",
      "gasUsed": "0x3d91b",
      "effectiveGasPrice": "0x15e911c9",
      "blobGasPrice": "0x1",
      "from": "0xf39fd6e51aad88f6f4ce6ab8827279cfffb92266",
      "to": "0xe7f1725e7734ce288f8367e1bb143e90bb3f0512",
      "contractAddress": null
    },
    {
      "status": "0x1",
      "cumulativeGasUsed": "0x5428e",
      "logs": [
        {
          "address": "0xcf7ed3acca5a467e9e704c703e8d87f634fb0fc9",
          "topics": [
            "0x73a19dd210f1a7f902193214c0ee91dd35ee5b4d920cba8d519eca65a7b488ca",
            "0x00000000000000000000000000000000000000000000000000000000000a11ce"
          ],
          "data": "0x000000000000000000000000000000000000000000000001a055690d9db80000000000000000000000000000000000000000000000000001a055690d9db80000",
          "blockHash": "0x9f109816715218adbf6d259d8bf8eb062eeda07f80de6df2090730aeeff88313",
          "blockNumber": "0x9",
          "blockTimestamp": "0x69e3fd10",
          "transactionHash": "0x1961ead5bab367e3cae5e7f2b592687269c235299a66ece5c3919ab07da10075",
          "transactionIndex": "0x1",
          "logIndex": "0x3",
          "removed": false
        }
      ],
      "logsBloom": "0x00000000000000000000000000000000000000000000000000000000000000000000000000000000000900000000080000000000000000000000000000000001000000000000000000000000000000000000000000000000000000000000000000000000000000000000000000000000000000000000000000000000000000000000000008000000000000000000000000000000000000000000000000000000000000000000000000000000000000002020000000008000000000004000000000000000000000000000000000000000000000000000000000000000000000000000000000000000000000000000000000000000000000000000000000000000",
      "type": "0x2",
      "transactionHash": "0x1961ead5bab367e3cae5e7f2b592687269c235299a66ece5c3919ab07da10075",
      "transactionIndex": "0x1",
      "blockHash": "0x9f109816715218adbf6d259d8bf8eb062eeda07f80de6df2090730aeeff88313",
      "blockNumber": "0x9",
      "gasUsed": "0x16973",
      "effectiveGasPrice": "0x15e911c9",
      "blobGasPrice": "0x1",
      "from": "0xf39fd6e51aad88f6f4ce6ab8827279cfffb92266",
      "to": "0xcf7ed3acca5a467e9e704c703e8d87f634fb0fc9",
      "contractAddress": null
    },
    {
      "status": "0x1",
      "cumulativeGasUsed": "0x5b8bf",
      "logs": [
        {
          "address": "0x5fbdb2315678afecb367f032d93f642f64180aa3",
          "topics": [
            "0xa59e3b52cc428f9ef295563b34bd6af71489d571edf9d7f38ba0e977d0abc6cf",
            "0x00000000000000000000000000000000000000000000000000000000000a11ce"
          ],
          "data": "0x",
          "blockHash": "0x9f109816715218adbf6d259d8bf8eb062eeda07f80de6df2090730aeeff88313",
          "blockNumber": "0x9",
          "blockTimestamp": "0x69e3fd10",
          "transactionHash": "0xdaf7d9c8b5dd6c00defb78e90cf2423b01dd24bd143e7b1729b8ce91c3951f35",
          "transactionIndex": "0x2",
          "logIndex": "0x4",
          "removed": false
        }
      ],
      "logsBloom": "0x00000000000000000000000000000000000000000000000000000000000000000000000000000000000000000000000000000008000000000000000000000000000000000000000000000000000000000000000000000000000000000000000000000040000000000000000000000000000000000000002000000000000000000000000000000000000000000000000000000000000000000000000200000000000000000000000000000000000000000020000000008000000000004000000000000040000000000000000000000000000000000000000000000000000000000000000000000000000000000000000000000000000000000000000000000004",
      "type": "0x2",
      "transactionHash": "0xdaf7d9c8b5dd6c00defb78e90cf2423b01dd24bd143e7b1729b8ce91c3951f35",
      "transactionIndex": "0x2",
      "blockHash": "0x9f109816715218adbf6d259d8bf8eb062eeda07f80de6df2090730aeeff88313",
      "blockNumber": "0x9",
      "gasUsed": "0x7631",
      "effectiveGasPrice": "0x15e911c9",
      "blobGasPrice": "0x1",
      "from": "0xf39fd6e51aad88f6f4ce6ab8827279cfffb92266",
      "to": "0x5fbdb2315678afecb367f032d93f642f64180aa3",
      "contractAddress": null
    },
    {
      "status": "0x1",
      "cumulativeGasUsed": "0x7ebfd",
      "logs": [
        {
          "address": "0xcf7ed3acca5a467e9e704c703e8d87f634fb0fc9",
          "topics": [
            "0x85614384dd52aa71c3b02d6986abe55274cb38b9b13fc323db17de1b950c2727",
            "0x0000000000000000000000005fc8d32690cc91d4c39d9d3abcbd16989f875707"
          ],
          "data": "0x0000000000000000000000000000000000000000000000008ac7230489e80000",
          "blockHash": "0x9f109816715218adbf6d259d8bf8eb062eeda07f80de6df2090730aeeff88313",
          "blockNumber": "0x9",
          "blockTimestamp": "0x69e3fd10",
          "transactionHash": "0xe81b34642359240f7418e72a84c05a658a1f9dd3754d094c8eec5b11e7c3f516",
          "transactionIndex": "0x3",
          "logIndex": "0x5",
          "removed": false
        },
        {
          "address": "0xdc64a140aa3e981100a9beca4e685f962f0cf6c9",
          "topics": [
            "0xa1dd612b9278fe0bb5d89ed1f642dc3678d0e558630c5a4a8df212ba2197cdb4"
          ],
          "data": "0x0000000000000000000000000000000000000000000000008ac7230489e800000000000000000000000000000000000000000000000000008ac7230489e80000",
          "blockHash": "0x9f109816715218adbf6d259d8bf8eb062eeda07f80de6df2090730aeeff88313",
          "blockNumber": "0x9",
          "blockTimestamp": "0x69e3fd10",
          "transactionHash": "0xe81b34642359240f7418e72a84c05a658a1f9dd3754d094c8eec5b11e7c3f516",
          "transactionIndex": "0x3",
          "logIndex": "0x6",
          "removed": false
        },
        {
          "address": "0xdc64a140aa3e981100a9beca4e685f962f0cf6c9",
          "topics": [
            "0x1ae7be25f03a7b2cd02903a39578c9e29d218dcc8e2b2f45f5066b8cce36992e",
            "0x00000000000000000000000000000000000000000000000000000000000a11ce"
          ],
          "data": "0x000000000000000000000000000000000000000000000000a688906bd8b000000000000000000000000000000000000000000000000000000000000069e3fd10",
          "blockHash": "0x9f109816715218adbf6d259d8bf8eb062eeda07f80de6df2090730aeeff88313",
          "blockNumber": "0x9",
          "blockTimestamp": "0x69e3fd10",
          "transactionHash": "0xe81b34642359240f7418e72a84c05a658a1f9dd3754d094c8eec5b11e7c3f516",
          "transactionIndex": "0x3",
          "logIndex": "0x7",
          "removed": false
        },
        {
          "address": "0x5fc8d32690cc91d4c39d9d3abcbd16989f875707",
          "topics": [
            "0x49a6c1172db54675883ee470ef779b91bccca4618a10365523473e0f0e4fbdb9",
            "0x00000000000000000000000000000000000000000000000000000000000a11ce"
          ],
          "data": "0x0000000000000000000000000000000000000000000000008ac7230489e80000000000000000000000000000000000000000000000000000a688906bd8b000000000000000000000000000000000000000000000000000000000000000000000",
          "blockHash": "0x9f109816715218adbf6d259d8bf8eb062eeda07f80de6df2090730aeeff88313",
          "blockNumber": "0x9",
          "blockTimestamp": "0x69e3fd10",
          "transactionHash": "0xe81b34642359240f7418e72a84c05a658a1f9dd3754d094c8eec5b11e7c3f516",
          "transactionIndex": "0x3",
          "logIndex": "0x8",
          "removed": false
        }
      ],
      "logsBloom": "0x00000000000000000008200000000000000000000000000000000000000000000000000000000000000000000000080040008000000000000000000000000001000000000000000000000000040000000000000240000000000000100000000000000000000000000000000000000000000800000000000000000000000000000000000008000000000000000000000000000000000000000000000000000000100000000000000000001000000000000020000000008000000800204000000000000000000000000000000000000000000000000020001001000101000000080000000000000000000000000000000000000001000000000100000000000000",
      "type": "0x2",
      "transactionHash": "0xe81b34642359240f7418e72a84c05a658a1f9dd3754d094c8eec5b11e7c3f516",
      "transactionIndex": "0x3",
      "blockHash": "0x9f109816715218adbf6d259d8bf8eb062eeda07f80de6df2090730aeeff88313",
      "blockNumber": "0x9",
      "gasUsed": "0x2333e",
      "effectiveGasPrice": "0x15e911c9",
      "blobGasPrice": "0x1",
      "from": "0xf39fd6e51aad88f6f4ce6ab8827279cfffb92266",
      "to": "0x5fc8d32690cc91d4c39d9d3abcbd16989f875707",
      "contractAddress": null
    },
    {
      "status": "0x1",
      "cumulativeGasUsed": "0x8a4e0",
      "logs": [
        {
          "address": "0xa513e6e4b8f2a923d98304ec87f64353c4d5c853",
          "topics": [
            "0x2da466a7b24304f47e87fa2e1e5a81b9831ce54fec19055ce277ca2f39ba42c4",
            "0x000000000000000000000000f39fd6e51aad88f6f4ce6ab8827279cfffb92266"
          ],
          "data": "0x0000000000000000000000000000000000000000000000004563918244f40000",
          "blockHash": "0x9f109816715218adbf6d259d8bf8eb062eeda07f80de6df2090730aeeff88313",
          "blockNumber": "0x9",
          "blockTimestamp": "0x69e3fd10",
          "transactionHash": "0xb006b099fcbdd2fb92bb590ceffa2daa1893a2d9cbf9106482481bb1634029e8",
          "transactionIndex": "0x4",
          "logIndex": "0x9",
          "removed": false
        }
      ],
      "logsBloom": "0x00000000000000000000000000000000000000000000000000000000000000010000000000000000000000000000000000000000000000000000000000000000000000000000000000000000000000000000000010000000010000000000200000000000000000000000000100000000000000000000000000000000000200000000000000000000000000000000000000000000000000000000000000000000000000000000000000000000000000000000000000000000000000000000000000000000000000200000000000000000000000002000000000000000000000000040000000000000000000000000000000000000000000000000000000000000",
      "type": "0x2",
      "transactionHash": "0xb006b099fcbdd2fb92bb590ceffa2daa1893a2d9cbf9106482481bb1634029e8",
      "transactionIndex": "0x4",
      "blockHash": "0x9f109816715218adbf6d259d8bf8eb062eeda07f80de6df2090730aeeff88313",
      "blockNumber": "0x9",
      "gasUsed": "0xb8e3",
      "effectiveGasPrice": "0x15e911c9",
      "blobGasPrice": "0x1",
      "from": "0xf39fd6e51aad88f6f4ce6ab8827279cfffb92266",
      "to": "0xa513e6e4b8f2a923d98304ec87f64353c4d5c853",
      "contractAddress": null
    },
    {
      "status": "0x1",
      "cumulativeGasUsed": "0xa15b7",
      "logs": [
        {
          "address": "0x0165878a594ca255338adfa4d48449f69242eb8f",
          "topics": [
            "0x1f291871fd5c9d8fab261c7bd708ae9a3f62f3363ea9970e21acc71de2515aaf"
          ],
          "data": "0x0000000000000000000000000000000000000000000000000b6139a7cbd200007039355f67696e693e7468726573686f6c6400000000000000000000000000000000000000000000000000000000000000000000000000000000000000000000",
          "blockHash": "0x9f109816715218adbf6d259d8bf8eb062eeda07f80de6df2090730aeeff88313",
          "blockNumber": "0x9",
          "blockTimestamp": "0x69e3fd10",
          "transactionHash": "0x9141f85ee4bbd00ad6ce740dc6aac43f2285090645c35f2b66b44ae1a438c1d6",
          "transactionIndex": "0x5",
          "logIndex": "0xa",
          "removed": false
        }
      ],
      "logsBloom": "0x00000000000000000000000000000000000000000000000000000000000000000000000000000000000000000000000000000000000000000000000000000000001000000000000000000000000000000000000002000000000000000000040000000000000000000000800000000000000000000000000000000000000000040000000000000000000000000000000000000000000000000000000000000000000000000000000000000000000000000000000000000000000000000000000000000004000000000000000000000000000000000000000000000000000000000000000000000000000000000000000000000000000000000000000000000000",
      "type": "0x2",
      "transactionHash": "0x9141f85ee4bbd00ad6ce740dc6aac43f2285090645c35f2b66b44ae1a438c1d6",
      "transactionIndex": "0x5",
      "blockHash": "0x9f109816715218adbf6d259d8bf8eb062eeda07f80de6df2090730aeeff88313",
      "blockNumber": "0x9",
      "gasUsed": "0x170d7",
      "effectiveGasPrice": "0x15e911c9",
      "blobGasPrice": "0x1",
      "from": "0xf39fd6e51aad88f6f4ce6ab8827279cfffb92266",
      "to": "0x0165878a594ca255338adfa4d48449f69242eb8f",
      "contractAddress": null
    },
    {
      "status": "0x1",
      "cumulativeGasUsed": "0xb4673",
      "logs": [
        {
          "address": "0xdc64a140aa3e981100a9beca4e685f962f0cf6c9",
          "topics": [
            "0xa1dd612b9278fe0bb5d89ed1f642dc3678d0e558630c5a4a8df212ba2197cdb4"
          ],
          "data": "0x00000000000000000000000000000000000000000000000006f05b59d3b2000000000000000000000000000000000000000000000000000091b77e5e5d9a0000",
          "blockHash": "0x9f109816715218adbf6d259d8bf8eb062eeda07f80de6df2090730aeeff88313",
          "blockNumber": "0x9",
          "blockTimestamp": "0x69e3fd10",
          "transactionHash": "0x5397b549ba86d303f87b53535f4922e2d105c2f6417f793830b84d688fce6227",
          "transactionIndex": "0x6",
          "logIndex": "0xb",
          "removed": false
        },
        {
          "address": "0xa513e6e4b8f2a923d98304ec87f64353c4d5c853",
          "topics": [
            "0x82e416ba72d10e709b5de7ac16f5f49ff1d94f22d55bf582d353d3c313a1e8dd",
            "0x000000000000000000000000dc64a140aa3e981100a9beca4e685f962f0cf6c9"
          ],
          "data": "0x00000000000000000000000000000000000000000000000006f05b59d3b200000000000000000000000000000000000000000000000000000b6139a7cbd20000",
          "blockHash": "0x9f109816715218adbf6d259d8bf8eb062eeda07f80de6df2090730aeeff88313",
          "blockNumber": "0x9",
          "blockTimestamp": "0x69e3fd10",
          "transactionHash": "0x5397b549ba86d303f87b53535f4922e2d105c2f6417f793830b84d688fce6227",
          "transactionIndex": "0x6",
          "logIndex": "0xc",
          "removed": false
        }
      ],
      "logsBloom": "0x00000000000000000008200000000000000000000000000000000000010000010000000000000000400000000000000000000000000000000000000000000000000000000000000000000000000000000000000010000001010000000000000000000000000000000000000000000000000000000000000000000000000000000000000000000000000000000000000000000000000000000000000000000000000000000000000000000000080000000000000000000000000000200000000000000000000000000000000000000000000000000020000000000000000000000000000000000000000000000000200000000001000000000100000000000400",
      "type": "0x2",
      "transactionHash": "0x5397b549ba86d303f87b53535f4922e2d105c2f6417f793830b84d688fce6227",
      "transactionIndex": "0x6",
      "blockHash": "0x9f109816715218adbf6d259d8bf8eb062eeda07f80de6df2090730aeeff88313",
      "blockNumber": "0x9",
      "gasUsed": "0x130bc",
      "effectiveGasPrice": "0x15e911c9",
      "blobGasPrice": "0x1",
      "from": "0xf39fd6e51aad88f6f4ce6ab8827279cfffb92266",
      "to": "0xa513e6e4b8f2a923d98304ec87f64353c4d5c853",
      "contractAddress": null
    },
    {
      "status": "0x1",
      "cumulativeGasUsed": "0xc5a64",
      "logs": [
        {
          "address": "0x9fe46736679d2d9a65f0992f2272de9f3c7fa6e0",
          "topics": [
            "0x13fa9622699f9a6ef338a40f44e499a6cd10d36b3b9089ada91ea579eb12dec5",
            "0x0000000000000000000000000000000000000000000000000000000000000b0b"
          ],
          "data": "0x0000000000000000000000000000000000000000000000000000000069e3fd03636572742d626f62000000000000000000000000000000000000000000000000",
          "blockHash": "0x9f109816715218adbf6d259d8bf8eb062eeda07f80de6df2090730aeeff88313",
          "blockNumber": "0x9",
          "blockTimestamp": "0x69e3fd10",
          "transactionHash": "0x51871c49ca30e8e84affc193eaeca9acfc554942592fdca675054ff0e4c14c99",
          "transactionIndex": "0x7",
          "logIndex": "0xd",
          "removed": false
        }
      ],
      "logsBloom": "0x00000000000000000000000000000000000000040000000000000000000000000000000000000000000000000000000000000000000040200000000000200000000000000000000000000000000000000000000000000000000000000000000000000000000000000000000000000000000000000000000000080000000000000000000000000000000000000400000000000000000000000000000000000000000000000000000000000000000000000000000000000000000000000000000000010000000000000000000000000000000000000000000000000000000000004000000000000000000000000000000000000000000000400000000000000000",
      "type": "0x2",
      "transactionHash": "0x51871c49ca30e8e84affc193eaeca9acfc554942592fdca675054ff0e4c14c99",
      "transactionIndex": "0x7",
      "blockHash": "0x9f109816715218adbf6d259d8bf8eb062eeda07f80de6df2090730aeeff88313",
      "blockNumber": "0x9",
      "gasUsed": "0x113f1",
      "effectiveGasPrice": "0x15e911c9",
      "blobGasPrice": "0x1",
      "from": "0xf39fd6e51aad88f6f4ce6ab8827279cfffb92266",
      "to": "0x9fe46736679d2d9a65f0992f2272de9f3c7fa6e0",
      "contractAddress": null
    }
  ],
  "libraries": [],
  "pending": [],
  "returns": {},
  "timestamp": 1776549136341,
  "chain": 31337,
  "commit": "202a169"
}